{"abi":[{"type":"constructor","inputs":[{"name":"_wMon","type":"address","internalType":"address"},{"name":"_vault","type":"address","internalType":"address"}],"stateMutability":"nonpayable"},{"type":"receive","stateMutability":"payable"},{"type":"function","name":"VAULT","inputs":[],"outputs":[{"name":"","type":"address","internalType":"contract IFeeVault"}],"stateMutability":"view"},{"type":"function","name":"WMON","inputs":[],"outputs":[{"name":"","type":"address","internalType":"address"}],"stateMutability":"view"},{"type":"function","name":"bcFactory","inputs":[],"outputs":[{"name":"","type":"address","internalType":"address"}],"stateMutability":"view"},{"type":"function","name":"buy","inputs":[{"name":"amountIn","type":"uint256","internalType":"uint256"},{"name":"fee","type":"uint256","internalType":"uint256"},{"name":"token","type":"address","internalType":"address"},{"name":"to","type":"address","internalType":"address"},{"name":"deadline","type":"uint256","internalType":"uint256"}],"outputs":[],"stateMutability":"payable"},{"type":"function","name":"createBc","inputs":[{"name":"creator","type":"address","internalType":"address"},{"name":"name","type":"string","internalType":"string"},{"name":"symbol","type":"string","internalType":"string"},{"name":"tokenURI","type":"string","internalType":"string"},{"name":"amountIn","type":"uint256","internalType":"uint256"},{"name":"fee","type":"uint256","internalType":"uint256"}],"outputs":[{"name":"bc","type":"address","internalType":"address"},{"name":"token","type":"address","internalType":"address"},{"name":"virtualNative","type":"uint256","internalType":"uint256"},{"name":"virtualToken","type":"uint256","internalType":"uint256"},{"name":"amountOut","type":"uint256","internalType":"uint256"}],"stateMutability":"payable"},{"type":"function","name":"exactOutBuy","inputs":[{"name":"amountInMax","type":"uint256","internalType":"uint256"},{"name":"amountOut","type":"uint256","internalType":"uint256"},{"name":"token","type":"address","internalType":"address"},{"name":"to","type":"address","internalType":"address"},{"name":"deadline","type":"uint256","internalType":"uint256"}],"outputs":[],"stateMutability":"payable"},{"type":"function","name":"exactOutSell","inputs":[{"name":"amountInMax","type":"uint256","internalType":"uint256"},{"name":"amountOut","type":"uint256","internalType":"uint256"},{"name":"token","type":"address","internalType":"address"},{"name":"to","type":"address","internalType":"address"},{"name":"deadline","type":"uint256","internalType":"uint256"}],"outputs":[],"stateMutability":"payable"},{"type":"function","name":"exactOutSellPermit","inputs":[{"name":"amountInMax","type":"uint256","internalType":"uint256"},{"name":"amountOut","type":"uint256","internalType":"uint256"},{"name":"token","type":"address","internalType":"address"},{"name":"from","type":"address","internalType":"address"},{"name":"to","type":"address","internalType":"address"},{"name":"deadline","type":"uint256","internalType":"uint256"},{"name":"v","type":"uint8","internalType":"uint8"},{"name":"r","type":"bytes32","internalType":"bytes32"},{"name":"s","type":"bytes32","internalType":"bytes32"}],"outputs":[],"stateMutability":"payable"},{"type":"function","name":"getAmountIn","inputs":[{"name":"amountOut","type":"uint256","internalType":"uint256"},{"name":"k","type":"uint256","internalType":"uint256"},{"name":"reserveIn","type":"uint256","internalType":"uint256"},{"name":"reserveOut","type":"uint256","internalType":"uint256"}],"outputs":[{"name":"amountIn","type":"uint256","internalType":"uint256"}],"stateMutability":"pure"},{"type":"function","name":"getAmountOut","inputs":[{"name":"amountIn","type":"uint256","internalType":"uint256"},{"name":"k","type":"uint256","internalType":"uint256"},{"name":"reserveIn","type":"uint256","internalType":"uint256"},{"name":"reserveOut","type":"uint256","internalType":"uint256"}],"outputs":[{"name":"amountOut","type":"uint256","internalType":"uint256"}],"stateMutability":"pure"},{"type":"function","name":"getBcData","inputs":[{"name":"_factory","type":"address","internalType":"address"},{"name":"token","type":"address","internalType":"address"}],"outputs":[{"name":"bc","type":"address","internalType":"address"},{"name":"virtualNative","type":"uint256","internalType":"uint256"},{"name":"virtualToken","type":"uint256","internalType":"uint256"},{"name":"k","type":"uint256","internalType":"uint256"}],"stateMutability":"view"},{"type":"function","name":"getBcData","inputs":[{"name":"bc","type":"address","internalType":"address"}],"outputs":[{"name":"virtualNative","type":"uint256","internalType":"uint256"},{"name":"virtualToken","type":"uint256","internalType":"uint256"},{"name":"k","type":"uint256","internalType":"uint256"}],"stateMutability":"view"},{"type":"function","name":"getFeeVault","inputs":[],"outputs":[{"name":"","type":"address","internalType":"address"}],"stateMutability":"view"},{"type":"function","name":"initialize","inputs":[{"name":"_bcFactory","type":"address","internalType":"address"}],"outputs":[],"stateMutability":"nonpayable"},{"type":"function","name":"protectBuy","inputs":[{"name":"amountIn","type":"uint256","internalType":"uint256"},{"name":"amountOutMin","type":"uint256","internalType":"uint256"},{"name":"fee","type":"uint256","internalType":"uint256"},{"name":"token","type":"address","internalType":"address"},{"name":"to","type":"address","internalType":"address"},{"name":"deadline","type":"uint256","internalType":"uint256"}],"outputs":[],"stateMutability":"payable"},{"type":"function","name":"protectSell","inputs":[{"name":"amountIn","type":"uint256","internalType":"uint256"},{"name":"amountOutMin","type":"uint256","internalType":"uint256"},{"name":"token","type":"address","internalType":"address"},{"name":"to","type":"address","internalType":"address"},{"name":"deadline","type":"uint256","internalType":"uint256"}],"outputs":[],"stateMutability":"nonpayable"},{"type":"function","name":"protectSellPermit","inputs":[{"name":"amountIn","type":"uint256","internalType":"uint256"},{"name":"amountOutMin","type":"uint256","internalType":"uint256"},{"name":"token","type":"address","internalType":"address"},{"name":"from","type":"address","internalType":"address"},{"name":"to","type":"address","internalType":"address"},{"name":"deadline","type":"uint256","internalType":"uint256"},{"name":"v","type":"uint8","internalType":"uint8"},{"name":"r","type":"bytes32","internalType":"bytes32"},{"name":"s","type":"bytes32","internalType":"bytes32"}],"outputs":[],"stateMutability":"nonpayable"},{"type":"function","name":"sell","inputs":[{"name":"amountIn","type":"uint256","internalType":"uint256"},{"name":"token","type":"address","internalType":"address"},{"name":"to","type":"address","internalType":"address"},{"name":"deadline","type":"uint256","internalType":"uint256"}],"outputs":[],"stateMutability":"nonpayable"},{"type":"function","name":"sellPermit","inputs":[{"name":"amountIn","type":"uint256","internalType":"uint256"},{"name":"token","type":"address","internalType":"address"},{"name":"from","type":"address","internalType":"address"},{"name":"to","type":"address","internalType":"address"},{"name":"deadline","type":"uint256","internalType":"uint256"},{"name":"v","type":"uint8","internalType":"uint8"},{"name":"r","type":"bytes32","internalType":"bytes32"},{"name":"s","type":"bytes32","internalType":"bytes32"}],"outputs":[],"stateMutability":"nonpayable"},{"type":"event","name":"GNadBuy","inputs":[],"anonymous":false},{"type":"event","name":"GNadCreate","inputs":[],"anonymous":false},{"type":"event","name":"GNadSell","inputs":[],"anonymous":false}],"bytecode":{"object":"0x60c0346100dd57601f61269b38819003918201601f19168301916001600160401b038311848410176100e15780849260409485528339810103126100dd57610052602061004b836100f5565b92016100f5565b5f805460ff60a01b191690556080919091526001600160a01b031660a052604051612591908161010a8239608051818181601c0152818161022f0152818161050b015281816106830152818161088e01528181610bd401528181610e2d015281816110bb0152818161139601528181611d1801526120c5015260a0518181816106c801526120a10152f35b5f80fd5b634e487b7160e01b5f52604160045260245ffd5b51906001600160a01b03821682036100dd5756fe6080806040526004361015610060575b50361561001a575f80fd5b7f00000000000000000000000000000000000000000000000000000000000000006001600160a01b0316330361004c57005b634e487b7160e01b5f52600160045260245ffd5b5f905f3560e01c908163089ff8d91461176b575080632f4b87861461174457806334d8f707146115a15780633a58394114611405578063411557d1146106b2578063526cc7a7146112f657806352707d8c146112d95780635404ce6114611220578063571fd012146111fb5780635a78b6c3146111b857806368f763b614610fc857806384f1f53014610d2e5780638ffc345314610a51578063c4d66de8146109cc578063e548cedd146106f7578063ec0f7cf0146106b2578063f1435d291461066d578063f19d65461461042b5763f95655300361000f57602461015f610147366118f1565b61015696949591929396611a77565b90421115611acb565b61017361016a611b36565b85341015611acb565b855460405163591af18560e01b81526001600160a01b0393841660048201819052909490936020928692918391165afa9283156104205786936103e0575b506101ce6101be84612327565b906101c886612392565b886122f2565b60408051632fdde06960e11b815291939188916001600160a01b038716919081600481855afa80156103d55761020e91849085926103a3575b508761201e565b9561022d8861021d8989611b81565b1115610227611f74565b90611acb565b7f00000000000000000000000000000000000000000000000000000000000000006001600160a01b03166102618888611b81565b91813b1561039f578460049360405194858092630d0e30db60e41b8252865af191821561039457858993610375575b506102a4935061029f8a612093565b612200565b803b156103715760405163cce7ec1360e01b81526001600160a01b0385166004820152602481018990529082908290604490829084905af1801561036657610345575b5050610307956103019493926102fc92612200565b611b81565b90611a56565b80610335575b507fb4015b130513f71e271fdfb3f6daf81f390aa655714ea0a83af84f25dcc001ec8180a180f35b61033f9033612119565b5f61030d565b816103539196959496611951565b61036257865f949293946102e7565b8680fd5b6040513d84823e3d90fd5b5080fd5b610383919350809294611951565b6103905781879185610290565b8380fd5b6040513d87823e3d90fd5b8480fd5b90506103c7915060403d6040116103ce575b6103bf8183611951565b810190611a2a565b905f610207565b503d6103b5565b6040513d85823e3d90fd5b9092506020813d602011610418575b816103fc60209383611951565b810103126104145761040d90611bf8565b915f6101b1565b8580fd5b3d91506103ef565b6040513d88823e3d90fd5b5060c036600319011261066a5760443560043561044661186d565b916084359084906001600160a01b03831683036103715760249061047661046b611a77565b4260a4351015611acb565b61048e6104838287611b81565b341015610227611b8e565b825460405163591af18560e01b81526001600160a01b039788166004820181905297909360209285928391165afa9182156103d557839261062a575b506104f26104d783612327565b906104e185612392565b6104ec858a88612175565b8861223c565b946105096104fe611b36565b602435881015611acb565b7f00000000000000000000000000000000000000000000000000000000000000006001600160a01b03169161053e8183611b81565b90833b15610414578560049260405193848092630d0e30db60e41b8252885af18015610420578592879161060f575b50509261029f61057c94612093565b6001600160a01b0316803b156103715760405163cce7ec1360e01b81526001600160a01b0384166004820152602481018590529082908290604490829084905af18015610366576105fa575b50506105d392612200565b7fb4015b130513f71e271fdfb3f6daf81f390aa655714ea0a83af84f25dcc001ec8180a180f35b8161060491611951565b61039057835f6105c8565b819293509061061d91611951565b61039f578390855f61056d565b9091506020813d602011610662575b8161064660209383611951565b8101031261065e5761065790611bf8565b905f6104ca565b8280fd5b3d9150610639565b80fd5b503461066a578060031936011261066a576040517f00000000000000000000000000000000000000000000000000000000000000006001600160a01b03168152602090f35b503461066a578060031936011261066a576040517f00000000000000000000000000000000000000000000000000000000000000006001600160a01b03168152602090f35b503461066a57608036600319011261066a57600435610714611841565b61071c611857565b90610733610728611a77565b426064351015611acb565b61074661073e611afb565b841515611acb565b604051636eb1769f60e11b81523360048201523060248201526001600160a01b039190911692908490602081604481885afa908115610366578291610991575b509161079f60249382610797611f39565b911015611acb565b815460405163591af18560e01b8152600481018790529360209185919082906001600160a01b03165afa928315610366578293610955575b506107f36107e484612327565b6107ed86612392565b8461223c565b60408051632fdde06960e11b815291946001600160a01b038116939183600481875afa9283156103945761083d936108359187908892610933575b508861201e565b973390612048565b803b1561037157604051636c197ff560e01b81526001600160a01b0385166004820152602481018490529082908290604490829084905af180156103665761091e575b505061088b83612093565b837f00000000000000000000000000000000000000000000000000000000000000006001600160a01b03166108c08584611a56565b813b1561065e578291602483926040519485938492632e1a7d4d60e01b845260048401525af1801561036657610909575b50506109069261090091611a56565b90612119565b80f35b8161091391611951565b61039057835f6108f1565b8161092891611951565b61039057835f610880565b905061094e915060403d6040116103ce576103bf8183611951565b905f61082e565b9092506020813d602011610989575b8161097160209383611951565b810103126103715761098290611bf8565b915f6107d7565b3d9150610964565b9150506020813d6020116109c4575b816109ad60209383611951565b810103126109c05751849061079f610786565b5f80fd5b3d91506109a0565b503461066a57602036600319011261066a576109e661182b565b8154610a306040516109f9604082611951565b601981527f474e61643a20414c52454144595f494e495449414c495a454400000000000000602082015260ff8360a01c1615611acb565b6001600160a81b0319166001600160a01b0390911617600160a01b17815580f35b503461066a5780610a72610a64366118f1565b610156969396959195611a77565b610a7d61073e611afb565b604051636eb1769f60e11b81523360048201523060248201526001600160a01b039190911690602081604481855afa9081156103d5578391610cf5575b5090610acb60249285610797611f39565b825460405163591af18560e01b8152600481018390529260209184919082906001600160a01b03165afa9182156103d5578392610cb9575b50610b1f610b1083612327565b610b1985612392565b8761223c565b60408051632fdde06960e11b815291956001600160a01b03851694929390929184600481885afa801561042057610b67610b7c91610b839689908a92610c97575b508a61201e565b99610b728b8a611a56565b1015610227611b36565b3390612048565b803b1561037157604051636c197ff560e01b81526001600160a01b0385166004820152602481018490529082908290604490829084905af1801561036657610c82575b5050610bd183612093565b837f00000000000000000000000000000000000000000000000000000000000000006001600160a01b0316610c068584611a56565b813b1561065e578291602483926040519485938492632e1a7d4d60e01b845260048401525af1801561036657610c6d575b5050610c469261090091611a56565b7f30f22450452369f7e082f6488e93dfb2aa89b153cc413eb279988e08f48519358180a180f35b81610c7791611951565b61039057835f610c37565b81610c8c91611951565b61039057835f610bc6565b9050610cb2915060403d6040116103ce576103bf8183611951565b905f610b60565b9091506020813d602011610ced575b81610cd560209383611951565b8101031261065e57610ce690611bf8565b905f610b03565b3d9150610cc8565b919250506020813d602011610d26575b81610d1260209383611951565b810103126109c05751859190610acb610aba565b3d9150610d05565b5080610d3936611883565b91909295610d57610d4e9a989996959a611a77565b42891015611acb565b610d6a610d62611f74565b871515611acb565b6001600160a01b031695863b15610fc457610d9e8893604051958694859463d505accf60e01b86528a308b600489016119e9565b038183885af1908115610394578591610faf575b5050835460405163591af18560e01b8152600481018590529290602090849060249082906001600160a01b03165afa928315610394578593610f73575b50610e2b610e19610dff85612327565b610e0887612392565b610e13348c8a612175565b8a6122f2565b91610e22611f74565b90831115611acb565b7f00000000000000000000000000000000000000000000000000000000000000006001600160a01b031693843b1561041457604051630d0e30db60e41b8152928684600481348a5af1918215610f6857878693610f4d575b50610e979450610e9234612093565b612048565b6001600160a01b0316803b1561065e57604051636c197ff560e01b81526001600160a01b0386166004820152602481018590529083908290604490829084905af19081156103d5578391610f38575b5050803b1561037157818091602460405180948193632e1a7d4d60e01b83528860048401525af1801561036657610f23575b5050610c4691612119565b81610f2d91611951565b61065e57825f610f18565b81610f4291611951565b61037157815f610ee6565b610f5b919350809295611951565b6104145782849187610e83565b6040513d89823e3d90fd5b9092506020813d602011610fa7575b81610f8f60209383611951565b8101031261039f57610fa090611bf8565b915f610def565b3d9150610f82565b81610fb991611951565b61039057835f610db2565b8780fd5b5080610fe4610fd6366118f1565b610156969493959196611a77565b610ff7610fef611afb565b831515611acb565b604051636eb1769f60e11b81523360048201523060248201526001600160a01b039190911690602081604481855afa90811561117457849161117f575b509061104560249284610797611f39565b835460405163591af18560e01b8152600481018390529260209184919082906001600160a01b03165afa918215611174578492611138575b506110b96110a761108d84612327565b61109686612392565b6110a1348b89612175565b896122f2565b936110b0611f74565b90851115611acb565b7f00000000000000000000000000000000000000000000000000000000000000006001600160a01b031692833b1561039f57604051630d0e30db60e41b8152858160048134895af18015610420578491879161111f575b5050610e9792610b7c34612093565b8192509061112c91611951565b61039f5782855f611110565b9091506020813d60201161116c575b8161115460209383611951565b810103126103905761116590611bf8565b905f61107d565b3d9150611147565b6040513d86823e3d90fd5b919350506020813d6020116111b0575b8161119c60209383611951565b810103126109c05751859290611045611034565b3d915061118f565b503461066a57602036600319011261066a5760606111d461182b565b6111e86111e082612327565b919092612392565b9060405192835260208301526040820152f35b503461066a57602061121861120f36611933565b929190916122f2565b604051908152f35b5060c036600319011261066a5761123561182b565b60243567ffffffffffffffff811161065e576112559036906004016119a3565b9160443567ffffffffffffffff8111610371576112769036906004016119a3565b906064359067ffffffffffffffff821161066a5760a06112ad86868661129f36600489016119a3565b9060a4359360843593611c1f565b604080515f196001891b0196871681529590941660208601529284019190915260608301526080820152f35b503461066a5760206112186112ed36611933565b9291909161223c565b50806024611317611306366118f1565b610156979496939297959195611a77565b6113246104838287611b81565b61133761132f611afb565b861515611acb565b61134a611342611bc9565b821515611acb565b825460405163591af18560e01b81526001600160a01b039788166004820181905297909360209285928391165afa9182156103d55783926113c9575b506113936104d783612327565b947f00000000000000000000000000000000000000000000000000000000000000006001600160a01b03169161053e8183611b81565b9091506020813d6020116113fd575b816113e560209383611951565b8101031261065e576113f690611bf8565b905f611386565b3d91506113d8565b503461066a578061141536611883565b9190929397969895611431611428611a77565b42871015611acb565b61144461143c611afb565b891515611acb565b6001600160a01b031693843b15610362576114788793604051958694859463d505accf60e01b86528c308c600489016119e9565b038183865af180156111745761158c575b50825460405163591af18560e01b8152600481018390529490602090869060249082906001600160a01b03165afa948515611174578495611550575b506114db6114d286612327565b6107ed88612392565b60408051632fdde06960e11b815291966001600160a01b03811695929490929185600481895afa8015610f6857611523610e9291610b83978a908b9261152e575b508b61201e565b9a610b728c8b611a56565b9050611549915060403d6040116103ce576103bf8183611951565b905f61151c565b9094506020813d602011611584575b8161156c60209383611951565b810103126103905761157d90611bf8565b935f6114c5565b3d915061155f565b611597848092611951565b61065e575f611489565b50346109c0576101003660031901126109c0576004356115bf611841565b906115c8611857565b906115d161186d565b9160a4359360ff851685036109c0576001600160a01b031693843b156109c0575f61161e916040518093819263d505accf60e01b835260e4359060c435906084358a308b600489016119e9565b038183895af1801561173957611724575b50845460405163591af18560e01b81526004810186905286929091602090839060249082906001600160a01b03165afa9182156103d55783926116e8575b5061167a610b1083612327565b60408051632fdde06960e11b815291956001600160a01b03851694929390929184600481885afa93841561042057610b83946116c091889089926116c6575b508961201e565b98612048565b90506116e1915060403d6040116103ce576103bf8183611951565b905f6116b9565b9091506020813d60201161171c575b8161170460209383611951565b8101031261065e5761171590611bf8565b905f61166d565b3d91506116f7565b602495505f61173291611951565b5f9461162f565b6040513d5f823e3d90fd5b346109c0575f3660031901126109c0575f546040516001600160a01b039091168152602090f35b346109c05760403660031901126109c05760208160248161178a61182b565b611792611841565b63591af18560e01b83526001600160a01b039081166004840152165afa8015611739575f906117f1575b806117c8608092612327565b6117d183612392565b916040519360018060a01b03168452602084015260408301526060820152f35b506020813d602011611823575b8161180b60209383611951565b810103126109c05761181e608091611bf8565b6117bc565b3d91506117fe565b600435906001600160a01b03821682036109c057565b602435906001600160a01b03821682036109c057565b604435906001600160a01b03821682036109c057565b606435906001600160a01b03821682036109c057565b6101209060031901126109c05760043590602435906044356001600160a01b03811681036109c057906064356001600160a01b03811681036109c057906084356001600160a01b03811681036109c0579060a4359060c43560ff811681036109c0579060e435906101043590565b60a09060031901126109c05760043590602435906044356001600160a01b03811681036109c057906064356001600160a01b03811681036109c0579060843590565b60809060031901126109c05760043590602435906044359060643590565b90601f8019910116810190811067ffffffffffffffff82111761197357604052565b634e487b7160e01b5f52604160045260245ffd5b67ffffffffffffffff811161197357601f01601f191660200190565b81601f820112156109c0578035906119ba82611987565b926119c86040519485611951565b828452602083830101116109c057815f926020809301838601378301015290565b9360c095919897969360ff9360e087019a60018060a01b0316875260018060a01b031660208701526040860152606085015216608083015260a08201520152565b91908260409103126109c057815160ff811681036109c05760209092015161ffff811681036109c05790565b91908203918211611a6357565b634e487b7160e01b5f52601160045260245ffd5b60405190611a86604083611951565b601282527111d398590e881512535157d156141254915160721b6020830152565b805180835260209291819084018484015e5f828201840152601f01601f1916010190565b15611ad35750565b60405162461bcd60e51b815260206004820152908190611af7906024830190611aa7565b0390fd5b60405190611b0a604083611951565b601782527f474e61643a20494e56414c49445f414d4f554e545f494e0000000000000000006020830152565b60405190611b45606083611951565b602782526615539517d3d55560ca1b6040837f426f6e64696e6743757276654c6962726172793a20494e56414c49445f414d4f60208201520152565b91908201809211611a6357565b60405190611b9d604083611951565b601882527f474e61643a20494e56414c49445f4d4f4e5f414d4f554e5400000000000000006020830152565b60405190611bd8604083611951565b6011825270474e61643a20494e56414c49445f46454560781b6020830152565b51906001600160a01b03821682036109c057565b81810292918115918404141715611a6357565b5f805460405163477e2a4d60e11b8152959896979691959194929386936001600160a01b039092169190602084600481865afa938415611739575f94611f05575b5083611c6c8a8c611b81565b90611c7691611b81565b341015611c81611b8e565b611c8a91611acb565b604051635819254760e01b81526001600160a01b0387166004820152608060248201529a8b928392611cc0906084850190611aa7565b838103600319016044850152611cd591611aa7565b828103600319016064840152611cea91611aa7565b03815a6080945f91f18015611739575f905f915f9a5f92611eac575b5081988b9a849c839860018060a01b037f00000000000000000000000000000000000000000000000000000000000000001693611d47896102fc8387611b81565b853b156109c0575f60049160405192838092630d0e30db60e41b82528a5af1801561173957611e97575b5083611db357505050505050505090611daa7ff49d5380e0631c8bb627b15dd0aa810d1fc7f58d38b448603342380ebb057e1792612093565b80a19493929190565b926102fc9299979f50611ddc969e5085611dd7969e50849299959d50819b50612175565b612093565b611dfc8488611df68b87611df08282611c0c565b8561223c565b98612200565b6001600160a01b038716803b156103715760405163cce7ec1360e01b81526001600160a01b0384166004820152602481018890529082908290604490829084905af1801561036657908794939291611e7a575b505092611e6c916102fc84611e729660018060a01b038d16612200565b95611a56565b929493929190565b818093949550611e8991611951565b61066a579081869392611e4f565b611ea4919a505f90611951565b5f985f611d71565b9a505050506080883d608011611efd575b81611eca60809383611951565b810103126109c057611edb88611bf8565b97611ee860208201611bf8565b6060604083015192015199909199905f611d06565b3d9150611ebd565b9093506020813d602011611f31575b81611f2160209383611951565b810103126109c05751925f611c60565b3d9150611f14565b60405190611f48604083611951565b601782527f474e61643a20494e56414c49445f414c4c4f57414e43450000000000000000006020830152565b60405190611f83604083611951565b601b82527f474e61643a20494e56414c49445f414d4f554e545f494e5f4d415800000000006020830152565b60405190611fbe606083611951565b602d82526c55545f42435f4c49425241525960981b6040837f426f6e64696e6743757276654c6962726172793a20494e56414c49445f494e5060208201520152565b811561200a570490565b634e487b7160e01b5f52601260045260245ffd5b6120409061ffff60ff6120459594169361203961132f611faf565b1690611c0c565b612000565b90565b6040516323b872dd60e01b60208201526001600160a01b0392831660248201529290911660448301526064808301939093529181526120919161208c608483611951565b6123f5565b565b612091906001600160a01b037f00000000000000000000000000000000000000000000000000000000000000008116907f000000000000000000000000000000000000000000000000000000000000000016612200565b3d15612114573d906120fb82611987565b916121096040519384611951565b82523d5f602084013e565b606090565b5f808061209194819460018060a01b03166108fcf16121366120ea565b5060405190612146604083611951565b601982527f474e61643a205452414e534645525f4d4f4e5f4641494c4544000000000000006020830152611acb565b60408051632fdde06960e11b8152939291849060049082906001600160a01b03165afa92831561173957612091936121c8925f925f926121d2575b5061ffff60ff6120409394169361203961132f611bc9565b1115610227611bc9565b60ff935061204092506121f661ffff9160403d6040116103ce576103bf8183611951565b90945092506121b0565b60405163a9059cbb60e01b60208201526001600160a01b039290921660248301526044808301939093529181526120919161208c606483611951565b61226190612268929493811515806122e9575b806122e0575b6102fc90610227611faf565b8093611b81565b5f198101908111611a63576120459261228091612000565b906122db604051612292606082611951565b602e81527f426f6e64696e6743757276654c6962726172793a20494e53554646494349454e60208201526d545f42435f4c495155494449545960901b6040820152828410611acb565b611a56565b50841515612255565b5080151561224f565b6122619061230f92946122db612306611b36565b82841115611acb565b5f198101908111611a6357612045926122db91612000565b60408051631fe3d86160e21b815291829060049082906001600160a01b03165afa8015611739575f915f9161235b57509091565b9150506040813d60401161238a575b8161237760409383611951565b810103126109c057602081519101519091565b3d915061236a565b604051630771cf3d60e51b815290602090829060049082906001600160a01b03165afa908115611739575f916123c6575090565b90506020813d6020116123ed575b816123e160209383611951565b810103126109c0575190565b3d91506123d4565b906124559160018060a01b03165f8060405193612413604086611951565b602085527f5361666545524332303a206c6f772d6c6576656c2063616c6c206661696c6564602086015260208151910182855af161244f6120ea565b916124e6565b80519081159182156124c3575b50501561246b57565b60405162461bcd60e51b815260206004820152602a60248201527f5361666545524332303a204552433230206f7065726174696f6e20646964206e6044820152691bdd081cdd58d8d9595960b21b6064820152608490fd5b81925090602091810103126109c0576020015180151581036109c0575f80612462565b9192901561254857508151156124fa575090565b3b156125035790565b60405162461bcd60e51b815260206004820152601d60248201527f416464726573733a2063616c6c20746f206e6f6e2d636f6e74726163740000006044820152606490fd5b825190915015611ad35750805190602001fdfea26469706673582212207e50b8bd54dfa8e2888fb510007070db14c28eef4c89adf0a940f5437f976b9464736f6c63430008220033","linkReferences":{}},"methodIdentifiers":{"VAULT()":"411557d1","WMON()":"f1435d29","bcFactory()":"2f4b8786","buy(uint256,uint256,address,address,uint256)":"526cc7a7","createBc(address,string,string,string,uint256,uint256)":"5404ce61","exactOutBuy(uint256,uint256,address,address,uint256)":"f9565530","exactOutSell(uint256,uint256,address,address,uint256)":"68f763b6","exactOutSellPermit(uint256,uint256,address,address,address,uint256,uint8,bytes32,bytes32)":"84f1f530","getAmountIn(uint256,uint256,uint256,uint256)":"571fd012","getAmountOut(uint256,uint256,uint256,uint256)":"52707d8c","getBcData(address)":"5a78b6c3","getBcData(address,address)":"089ff8d9","getFeeVault()":"ec0f7cf0","initialize(address)":"c4d66de8","protectBuy(uint256,uint256,uint256,address,address,uint256)":"f19d6546","protectSell(uint256,uint256,address,address,uint256)":"8ffc3453","protectSellPermit(uint256,uint256,address,address,address,uint256,uint8,bytes32,bytes32)":"3a583941","sell(uint256,address,address,uint256)":"e548cedd","sellPermit(uint256,address,address,address,uint256,uint8,bytes32,bytes32)":"34d8f707"},"id":43}