{"abi":[{"type":"constructor","inputs":[{"name":"_owner","type":"address","internalType":"address"},{"name":"_gNad","type":"address","internalType":"address"},{"name":"_wMon","type":"address","internalType":"address"}],"stateMutability":"nonpayable"},{"type":"function","name":"WMON","inputs":[],"outputs":[{"name":"","type":"address","internalType":"address"}],"stateMutability":"view"},{"type":"function","name":"create","inputs":[{"name":"creator","type":"address","internalType":"address"},{"name":"name","type":"string","internalType":"string"},{"name":"symbol","type":"string","internalType":"string"},{"name":"tokenURI","type":"string","internalType":"string"}],"outputs":[{"name":"bc","type":"address","internalType":"address"},{"name":"token","type":"address","internalType":"address"},{"name":"virtualNative","type":"uint256","internalType":"uint256"},{"name":"virtualToken","type":"uint256","internalType":"uint256"}],"stateMutability":"nonpayable"},{"type":"function","name":"getBc","inputs":[{"name":"token","type":"address","internalType":"address"}],"outputs":[{"name":"bc","type":"address","internalType":"address"}],"stateMutability":"view"},{"type":"function","name":"getConfig","inputs":[],"outputs":[{"name":"","type":"tuple","internalType":"struct IBondingCurveFactory.Config","components":[{"name":"deployFee","type":"uint256","internalType":"uint256"},{"name":"listingFee","type":"uint256","internalType":"uint256"},{"name":"tokenTotalSupply","type":"uint256","internalType":"uint256"},{"name":"virtualNative","type":"uint256","internalType":"uint256"},{"name":"virtualToken","type":"uint256","internalType":"uint256"},{"name":"k","type":"uint256","internalType":"uint256"},{"name":"targetToken","type":"uint256","internalType":"uint256"},{"name":"feeNumerator","type":"uint16","internalType":"uint16"},{"name":"feeDenominator","type":"uint8","internalType":"uint8"}]}],"stateMutability":"view"},{"type":"function","name":"getDelpyFee","inputs":[],"outputs":[{"name":"deployFee","type":"uint256","internalType":"uint256"}],"stateMutability":"view"},{"type":"function","name":"getDexFactory","inputs":[],"outputs":[{"name":"","type":"address","internalType":"address"}],"stateMutability":"view"},{"type":"function","name":"getFeeConfig","inputs":[],"outputs":[{"name":"denominator","type":"uint8","internalType":"uint8"},{"name":"numerator","type":"uint16","internalType":"uint16"}],"stateMutability":"view"},{"type":"function","name":"getGNad","inputs":[],"outputs":[{"name":"_gNad","type":"address","internalType":"address"}],"stateMutability":"view"},{"type":"function","name":"getK","inputs":[],"outputs":[{"name":"k","type":"uint256","internalType":"uint256"}],"stateMutability":"view"},{"type":"function","name":"getListingFee","inputs":[],"outputs":[{"name":"listingFee","type":"uint256","internalType":"uint256"}],"stateMutability":"view"},{"type":"function","name":"getOwner","inputs":[],"outputs":[{"name":"","type":"address","internalType":"address"}],"stateMutability":"view"},{"type":"function","name":"initialize","inputs":[{"name":"params","type":"tuple","internalType":"struct IBondingCurveFactory.InitializeParams","components":[{"name":"deployFee","type":"uint256","internalType":"uint256"},{"name":"listingFee","type":"uint256","internalType":"uint256"},{"name":"tokenTotalSupply","type":"uint256","internalType":"uint256"},{"name":"virtualNative","type":"uint256","internalType":"uint256"},{"name":"virtualToken","type":"uint256","internalType":"uint256"},{"name":"targetToken","type":"uint256","internalType":"uint256"},{"name":"feeNumerator","type":"uint16","internalType":"uint16"},{"name":"feeDenominator","type":"uint8","internalType":"uint8"},{"name":"dexFactory","type":"address","internalType":"address"}]}],"outputs":[],"stateMutability":"nonpayable"},{"type":"function","name":"setDexFactory","inputs":[{"name":"_dexFactory","type":"address","internalType":"address"}],"outputs":[],"stateMutability":"nonpayable"},{"type":"function","name":"setGNad","inputs":[{"name":"_gnad","type":"address","internalType":"address"}],"outputs":[],"stateMutability":"nonpayable"},{"type":"function","name":"setOwner","inputs":[{"name":"_owner","type":"address","internalType":"address"}],"outputs":[],"stateMutability":"nonpayable"},{"type":"event","name":"Create","inputs":[{"name":"owner","type":"address","indexed":true,"internalType":"address"},{"name":"bc","type":"address","indexed":true,"internalType":"address"},{"name":"token","type":"address","indexed":true,"internalType":"address"},{"name":"tokenURI","type":"string","indexed":false,"internalType":"string"},{"name":"name","type":"string","indexed":false,"internalType":"string"},{"name":"symbol","type":"string","indexed":false,"internalType":"string"},{"name":"virtualNative","type":"uint256","indexed":false,"internalType":"uint256"},{"name":"virtualToken","type":"uint256","indexed":false,"internalType":"uint256"}],"anonymous":false},{"type":"event","name":"SetDexFactory","inputs":[{"name":"dexFactory","type":"address","indexed":true,"internalType":"address"}],"anonymous":false},{"type":"event","name":"SetGNad","inputs":[{"name":"gnad","type":"address","indexed":true,"internalType":"address"}],"anonymous":false},{"type":"event","name":"SetInitialize","inputs":[{"name":"deployFee","type":"uint256","indexed":false,"internalType":"uint256"},{"name":"listingFee","type":"uint256","indexed":false,"internalType":"uint256"},{"name":"tokenTotalSupply","type":"uint256","indexed":false,"internalType":"uint256"},{"name":"virtualNative","type":"uint256","indexed":false,"internalType":"uint256"},{"name":"virtualToken","type":"uint256","indexed":false,"internalType":"uint256"},{"name":"k","type":"uint256","indexed":false,"internalType":"uint256"},{"name":"targetToken","type":"uint256","indexed":false,"internalType":"uint256"},{"name":"feeNumerator","type":"uint16","indexed":false,"internalType":"uint16"},{"name":"feeDominator","type":"uint8","indexed":false,"internalType":"uint8"},{"name":"dexFactory","type":"address","indexed":false,"internalType":"address"}],"anonymous":false}],"bytecode":{"object":"0x60a0346100b057601f61438b38819003918201601f19168301916001600160401b038311848410176100b4578084926060946040528339810103126100b057610047816100c8565b906100606040610059602084016100c8565b92016100c8565b5f80546001600160a01b039485166001600160a01b03199182161790915560018054939094169216919091179091556080526040516142ae90816100dd823960805181818160d401526106650152f35b5f80fd5b634e487b7160e01b5f52604160045260245ffd5b51906001600160a01b03821682036100b05756fe60806040526004361015610011575f80fd5b5f5f3560e01c806313af40351461095b578063207c2d3e146108e65780635819254714610559578063591af185146105185780635fbbc0d2146104eb578063787e1880146104c257806386079d4b1461044b578063893d20e8146104245780638efc549a14610406578063b8fe6abe146103e8578063c3f909d41461036a578063e0ef2dd814610341578063ee39e7a014610323578063efc2b915146101065763f1435d29146100bf575f80fd5b346101035780600319360112610103576040517f00000000000000000000000000000000000000000000000000000000000000006001600160a01b03168152602090f35b80fd5b50346101035761012036600319011261010357604051610125816109c2565b6004358152602081019060243582526040810160443581526060820160643581526080830190608435825260a084019060a435825260c4359161ffff8316830361031f5760c0860192835260e4359360ff8516850361031b5760e0870194855261010435926001600160a01b03841684036103175761010088019384526101bf60018060a01b038b541633146101b9610a57565b90610acc565b8051938251948581029581870414901517156103035791839160ff61ffff87958a988d9b7fad0f73a2bc640485b18ae9f08f4bafe71f0ea0ec423d84b5f3ce383d0818d3039f9d9b6101409f9a8f8e839d5191519051908a5192898d51955196511696519760405190610231826109c2565b82825283602083015284604083015285606083015286608083015260a08201528660c08201528760e08201526101008c8a169101526003556004556005556006556007558960085560095562ff0000600a549260101b169162ffffff19161717600a5560018060a01b03905116998a6bffffffffffffffffffffffff60a01b6002541617600255519a51985192519351945196511696511696604051998a5260208a015260408901526060880152608087015260a086015260c085015260e0840152610100830152610120820152a180f35b634e487b7160e01b8b52601160045260248bfd5b8980fd5b8880fd5b8780fd5b50346101035780600319360112610103576020600854604051908152f35b50346101035780600319360112610103576002546040516001600160a01b039091168152602090f35b5034610103578060031936011261010357610120610386610afc565b60ff61010060405192805184526020810151602085015260408101516040850152606081015160608501526080810151608085015260a081015160a085015260c081015160c085015261ffff60e08201511660e0850152015116610100820152f35b50346101035780600319360112610103576020600454604051908152f35b50346101035780600319360112610103576020600354604051908152f35b5034610103578060031936011261010357546040516001600160a01b039091168152602090f35b5034610103576020366003190112610103576104656109ac565b61047c60018060a01b0383541633146101b9610a57565b600180546001600160a01b0319166001600160a01b039290921691821790557f3d5107401ed584e4cf326a424177a59caa03b0c277d9309b53417ea49aaa30e48280a280f35b50346101035780600319360112610103576001546040516001600160a01b039091168152602090f35b50346101035780600319360112610103576040600a5461ffff82519160ff8160101c168352166020820152f35b5034610103576020366003190112610103576020906001600160a01b0361053d6109ac565b168152600b8252604060018060a01b0391205416604051908152f35b50346108ce5760803660031901126108ce576105736109ac565b9060243567ffffffffffffffff81116108ce57610594903690600401610a01565b60443567ffffffffffffffff81116108ce576105b4903690600401610a01565b9160643567ffffffffffffffff81116108ce576105d5903690600401610a01565b9060018060a01b0360015416906060926106316040516105f586826109df565b602181527f426f6e64696e674375727665466163746f72793a20494e56414c49445f474e416020820152601160fa1b6040820152843314610acc565b610639610afc565b92604051906117c980830183811067ffffffffffffffff8211176108d2576040928492610b99843981527f00000000000000000000000000000000000000000000000000000000000000006001600160a01b031660208201520301905ff080156108c3576001546040516001600160a01b0392831698929091611f1791828401911667ffffffffffffffff8211848310176108d25783926123628439608082528861070a6106fc6106ee8d6080870190610aa8565b858103602087015288610aa8565b848103604086015288610aa8565b92015203905ff080156108c3576001600160a01b031692833b156108ce576040516335313c2160e11b8152600481018990525f8160248183895af180156108c3576108b0575b508585019081519560808101968a88519260a081015160c08201519061ffff60e060ff6101008601511694015116933b156108ac578e87959460e4948d9488946040519a8b998a9863c228dae960e01b8a5260048a0152602489015260448801526064870152608486015260a485015260c48401525af180156108a15761088c575b50610840859461085c8b9561084e60809e966040878b7f962c5f466b5c14a23d5aa7d7f1cd96153b1fd74124062d77ef00352a9812daf59952600b60205220896bffffffffffffffffffffffff60a01b825416179055519a519c60405195869560a0875260a0870190610aa8565b908582036020870152610aa8565b908382036040850152610aa8565b818a018990528c82018b90526001600160a01b03909416930390a460405194855260208501526040840152820152f35b6108978280926109df565b610103575f6107d2565b6040513d84823e3d90fd5b8680fd5b6108bc91505f906109df565b5f5f610750565b6040513d5f823e3d90fd5b5f80fd5b634e487b7160e01b5f52604160045260245ffd5b346108ce5760203660031901126108ce576108ff6109ac565b61091660018060a01b035f541633146101b9610a57565b600280546001600160a01b0319166001600160a01b039290921691821790557fabb2b901855a06e9e77655498251ea8fdf453cbe433657d6e76d141b77771fd55f80a2005b346108ce5760203660031901126108ce576109746109ac565b61098b60018060a01b035f541633146101b9610a57565b5f80546001600160a01b0319166001600160a01b0392909216919091179055005b600435906001600160a01b03821682036108ce57565b610120810190811067ffffffffffffffff8211176108d257604052565b90601f8019910116810190811067ffffffffffffffff8211176108d257604052565b81601f820112156108ce5780359067ffffffffffffffff82116108d25760405192610a36601f8401601f1916602001856109df565b828452602083830101116108ce57815f926020809301838601378301015290565b60405190610a666060836109df565b602d82526c2320a1aa27a92cafa7aba722a960991b6040837f426f6e64696e674375727665466163746f72793a20494e56414c49445f42435f60208201520152565b805180835260209291819084018484015e5f828201840152601f01601f1916010190565b15610ad45750565b60405162461bcd60e51b815260206004820152908190610af8906024830190610aa8565b0390fd5b5f610100604051610b0c816109c2565b8281528260208201528260408201528260608201528260808201528260a08201528260c08201528260e08201520152604051610b47816109c2565b6003548152600454602082015260055460408201526006546060820152600754608082015260085460a082015260095460c082015260ff600a5461ffff811660e084015260101c166101008201529056fe60e0346100b157601f6117c938819003918201601f19168301916001600160401b038311848410176100b55780849260409485528339810103126100b157610052602061004b836100c9565b92016100c9565b903360805260a05260c0526040516116eb90816100de82396080518181816105be0152610846015260a0518181816101db0152610ea1015260c051818181610130015281816102a90152818161063f015281816108a00152610f140152f35b5f80fd5b634e487b7160e01b5f52604160045260245ffd5b51906001600160a01b03821682036100b15756fe6080806040526004361015610012575f80fd5b5f905f3560e01c9081630902f1ac1461120d575080633366eeb2146111f05780635fbbc0d2146111c45780636c197ff514610e705780637e5852d914610e4e5780637f8f618414610e2a578063a8aa1b3114610e02578063bc7c55ed14610778578063c01716821461017d578063c228dae914610539578063cce7ec13146101a3578063e06ec0bb1461017d578063ee39e7a01461015f578063f1435d291461011a578063f83d08ba146100f75763fc0c546a146100ce575f80fd5b346100f457806003193601126100f457546040516001600160a01b039091168152602090f35b80fd5b50346100f457806003193601126100f457602060ff600954166040519015158152f35b50346100f457806003193601126100f4576040517f00000000000000000000000000000000000000000000000000000000000000006001600160a01b03168152602090f35b50346100f457806003193601126100f4576020600454604051908152f35b50346100f457806003193601126100f457602060ff60095460081c166040519015158152f35b50346100f45760403660031901126100f4576101bd611230565b602435906101d960ff60095416156101d361127c565b906112ec565b7f000000000000000000000000000000000000000000000000000000000000000090610217610206611314565b336001600160a01b038516146112ec565b61022a61022261135a565b8415156112ec565b60018060a01b03845416916102e7846007549261029b61024c836008546113e0565b600554111560405190610260606083611246565b602382527f426f6e64696e6743757276653a20494e56414c49445f4c4f434b45445f414d4f60208301526215539560ea1b60408301526112ec565b6001600160a01b03948516957f000000000000000000000000000000000000000000000000000000000000000090951694868614158061052f575b6102e2906101d36113a5565b611486565b6040516370a0823160e01b815230600482015290602082602481865afa9182156105245786926104ee575b506103216020916024936113e0565b92604051928380926370a0823160e01b82523060048301525afa9081156104b15785916104bc575b5060075583546040516370a0823160e01b815230600482015290602090829060249082906001600160a01b03165afa9081156104b157859161045b575b507f89f5adc174562e07c9c9b1cae7109bbecb21cf9d1b2847e550042b8653c54a0e916040916008556103bb816002546115e6565b6002556103ca856003546113e0565b60035560018060a01b038654167f27efe2fec96cb0ff68b9206e3dca402a919bb7172e2f2d12d49b633df3eabc4f60806007546008546002546003549188519384526020840152878301526060820152a261043a61042d60025460035490611401565b60045411156101d3611414565b60018060a01b038654169482519182526020820152a36104586115f3565b80f35b90506020813d6020116104a9575b8161047660209383611246565b810103126104a557517f89f5adc174562e07c9c9b1cae7109bbecb21cf9d1b2847e550042b8653c54a0e610386565b5f80fd5b3d9150610469565b6040513d87823e3d90fd5b90506020813d6020116104e6575b816104d760209383611246565b810103126104a557515f610349565b3d91506104ca565b91506020823d60201161051c575b8161050960209383611246565b810103126104a557905190610321610312565b3d91506104fc565b6040513d88823e3d90fd5b50868114156102d6565b50346100f45760e03660031901126100f457610553611230565b60a43560ff81168091036107745760c4359161ffff831690818403610770576105ec604051610583606082611246565b602581527f426f6e64696e6743757276653a20494e56414c49445f464143544f52595f4144602082015264445245535360d81b6040820152337f00000000000000000000000000000000000000000000000000000000000000006001600160a01b0316146112ec565b60018060a01b0316806bffffffffffffffffffffffff60a01b8654161785556024356002556044356003556064356004556040516370a0823160e01b815230600482015260208160248160018060a01b037f0000000000000000000000000000000000000000000000000000000000000000165afa90811561052457869161073d575b506007556040516370a0823160e01b815230600482015290602090829060249082905afa9081156104b157859161070b575b506008556084356005556040516040810181811067ffffffffffffffff8211176106f75790602091604052838152015262ffff006006549260081b169162ffffff1916171760065561ff00196009541660095580f35b634e487b7160e01b86526041600452602486fd5b90506020813d602011610735575b8161072660209383611246565b810103126104a557515f6106a1565b3d9150610719565b90506020813d602011610768575b8161075860209383611246565b810103126104a55751602461066f565b3d915061074b565b8480fd5b8280fd5b50346104a5575f3660031901126104a5576108376009546107e56040516107a0606082611246565b602481527f426f6e64696e6743757276653a20494e56414c49445f49545f49535f554e4c4f60208201526310d2d15160e21b6040820152600160ff84161515146112ec565b60ff604051916107f6606084611246565b602483527f426f6e64696e6743757276653a20494e56414c49445f414c52454144595f4c4960208401526314d5115160e21b604084015260081c16156112ec565b604051631c1de5bb60e31b81527f00000000000000000000000000000000000000000000000000000000000000006001600160a01b0316602082600481845afa918215610d6f575f92610de1575b505f80546040516364e329cb60e11b81526001600160a01b037f0000000000000000000000000000000000000000000000000000000000000000811660048301819052928116602483015291949092602092849260449284929091165af1908115610d6f575f91610dc2575b50600180546001600160a01b0319166001600160a01b0392909216919091179055604051635c7f355f60e11b815290602082600481845afa918215610d6f575f92610d8e575b5060085461095361094a846007546113e0565b60035490611401565b906002548015610d7a576109689204906113e0565b5f546001600160a01b031690813b156104a5575f91602483926040519485938492630852cd8d60e31b845260048401525af18015610d6f57610d53575b509060206004926040519384809262f0fc3160e71b82525afa918215610c47576004926020918691610d36575b50604051630ec0f7cf60e41b815293849182906001600160a01b03165afa8015610c4757610a08928591610d07575b5083611486565b6040516370a0823160e01b81523060048201528290602081602481865afa908115610cfc578291610cc6575b5081546040516370a0823160e01b8152306004820152929390602090849060249082906001600160a01b03165afa928315610c47578493610c8c575b5060015460405163a9059cbb60e01b81526001600160a01b03909116600482015260248101839052906020908290604490829088905af18015610c4757610c6f575b50825460015460405163a9059cbb60e01b81526001600160a01b0391821660048201526024810185905291602091839160449183918991165af18015610c4757610c52575b508260075582600855602060018060a01b03600154166024604051809681936335313c2160e11b83523060048401525af1928315610c47578493610c13575b5083602060018060a01b036001541660446040518098819363a9059cbb60e01b83528160048401528960248401525af1948515610c0657602095610bdb575b5061010061ff0019600954161760095560018060a01b039054169060018060a01b03600154169384936040519283528683015260408201527f9399e68793b73147d1402480d7f9c8d8b40b581f9547192713495d3c2e38568160603092a4604051908152f35b610bfa90863d8811610bff575b610bf28183611246565b81019061146e565b610b75565b503d610be8565b50604051903d90823e3d90fd5b9092506020813d602011610c3f575b81610c2f60209383611246565b810103126104a55751915f610b36565b3d9150610c22565b6040513d86823e3d90fd5b610c6a9060203d602011610bff57610bf28183611246565b610af7565b610c879060203d602011610bff57610bf28183611246565b610ab2565b935091506020833d602011610cbe575b81610ca960209383611246565b810103126104a5579151839290916020610a70565b3d9150610c9c565b9150506020813d602011610cf4575b81610ce260209383611246565b810103126104a5575182906024610a34565b3d9150610cd5565b6040513d84823e3d90fd5b610d29915060203d602011610d2f575b610d218183611246565b81019061144f565b5f610a01565b503d610d17565b610d4d9150823d8411610d2f57610d218183611246565b5f6109d2565b6004929194505f610d6391611246565b60205f949192506109a5565b6040513d5f823e3d90fd5b634e487b7160e01b5f52601260045260245ffd5b9091506020813d602011610dba575b81610daa60209383611246565b810103126104a55751905f610937565b3d9150610d9d565b610ddb915060203d602011610d2f57610d218183611246565b5f6108f1565b610dfb91925060203d602011610d2f57610d218183611246565b905f610885565b346104a5575f3660031901126104a5576001546040516001600160a01b039091168152602090f35b346104a5575f3660031901126104a557604060025460035482519182526020820152f35b346104a5575f3660031901126104a557602060ff600954166040519015158152f35b346104a55760403660031901126104a557610e89611230565b60243590610e9f60ff60095416156101d361127c565b7f000000000000000000000000000000000000000000000000000000000000000090610ecc610206611314565b610ed761022261135a565b5f5460075460085492916024916020916001600160a01b031690610f0690610efd61135a565b908911156112ec565b6001600160a01b03938416957f000000000000000000000000000000000000000000000000000000000000000090941693610f5990889088871415806111ba575b610f53906101d36113a5565b86611486565b6040516370a0823160e01b815230600482015292839182905afa908115610d6f575f91611187575b50602492610f8e916113e0565b6020604092610fd38451610fa28682611246565b601781527f474e61643a20494e56414c49445f414d4f554e545f494e000000000000000000848201528415156112ec565b83516370a0823160e01b815230600482015294859182905afa801561114a575f90611154575b6007555f5482516370a0823160e01b81523060048201529350602090849060249082906001600160a01b03165afa801561114a575f906110f8575b7fa082022e93cfcd9f1da5f9236718053910f7e840da080c789c7845698dc032ff9350600855611066856002546113e0565b600255611075816003546115e6565b60035560018060a01b035f54167f27efe2fec96cb0ff68b9206e3dca402a919bb7172e2f2d12d49b633df3eabc4f60806007546008546002546003549188519384526020840152878301526060820152a26110d861042d60025460035490611401565b60018060a01b035f54169482519182526020820152a36110f66115f3565b005b506020833d602011611142575b8161111260209383611246565b810103126104a5577fa082022e93cfcd9f1da5f9236718053910f7e840da080c789c7845698dc032ff9251611034565b3d9150611105565b82513d5f823e3d90fd5b506020833d60201161117f575b8161116e60209383611246565b810103126104a55760249251610ff9565b3d9150611161565b90506020813d6020116111b2575b816111a260209383611246565b810103126104a557516024610f81565b3d9150611195565b5088841415610f47565b346104a5575f3660031901126104a557604060065461ffff82519160ff8116835260081c166020820152f35b346104a5575f3660031901126104a5576020600554604051908152f35b346104a5575f3660031901126104a5576040906007546008549082526020820152f35b600435906001600160a01b03821682036104a557565b90601f8019910116810190811067ffffffffffffffff82111761126857604052565b634e487b7160e01b5f52604160045260245ffd5b6040519061128b606083611246565b6022825261115160f21b6040837f426f6e64696e6743757276653a20494e56414c49445f49545f49535f4c4f434b60208201520152565b602060409281835280519182918282860152018484015e5f828201840152601f01601f1916010190565b156112f45750565b60405162461bcd60e51b815290819061131090600483016112c2565b0390fd5b60405190611323606083611246565b6022825261535360f01b6040837f426f6e64696e6743757276653a20494e56414c49445f474e41445f414444524560208201520152565b60405190611369606083611246565b602782526615539517d3d55560ca1b6040837f426f6e64696e6743757276654c6962726172793a20494e56414c49445f414d4f60208201520152565b604051906113b4604083611246565b601f82527f426f6e64696e6743757276653a20494e56414c49445f524543495049454e54006020830152565b919082039182116113ed57565b634e487b7160e01b5f52601160045260245ffd5b818102929181159184041417156113ed57565b60405190611423604083611246565b601782527f426f6e64696e6743757276653a20494e56414c49445f4b0000000000000000006020830152565b908160209103126104a557516001600160a01b03811681036104a55790565b908160209103126104a5575180151581036104a55790565b60405163a9059cbb60e01b602082019081526001600160a01b039390931660248201526044808201949094529283529091905f9081906114c7606485611246565b60018060a01b031693604051936114df604086611246565b602085527f5361666545524332303a206c6f772d6c6576656c2063616c6c206661696c65646020860152519082865af13d156115d9573d9067ffffffffffffffff821161126857604051611551949092611543601f8201601f191660200185611246565b83523d5f602085013e611640565b80519081159182156115bf575b50501561156757565b60405162461bcd60e51b815260206004820152602a60248201527f5361666545524332303a204552433230206f7065726174696f6e20646964206e6044820152691bdd081cdd58d8d9595960b21b6064820152608490fd5b6115d2925060208091830101910161146e565b5f8061155e565b9161155192606091611640565b919082018092116113ed57565b6008546005541461160057565b6009805460ff191660011790555f80546001600160a01b0316907fc1b5f12cea7c200ad495a43bf2d4c7ba1a753343c06c339093937849de84d9139080a2565b919290156116a25750815115611654575090565b3b1561165d5790565b60405162461bcd60e51b815260206004820152601d60248201527f416464726573733a2063616c6c20746f206e6f6e2d636f6e74726163740000006044820152606490fd5b8251909150156112f45750805190602001fdfea2646970667358221220fbcde5b9a5cb921fa9d4feb871cc85ecbc37397f23c3ddc2d6a6891bb2473a4864736f6c6343000822003361016080604052346105c957611f17803803809161001d82856105cd565b833981016080828203126105c95781516001600160401b0381116105c957816100479184016105f0565b60208301516001600160401b0381116105c957826100669185016105f0565b60408401519092906001600160401b0381116105c95760609161008a9186016105f0565b9301516001600160a01b03811691908290036105c9576040928351916100b085846105cd565b60018352603160f81b6020840190815281519092906001600160401b0381116103dd57600354600181811c911680156105bf575b60208210146103bf57601f8111610551575b50806020601f82116001146104ed575f916104e2575b508160011b915f199060031b1c1916176003555b8051906001600160401b0382116103dd5760045490600182811c921680156104d8575b60208310146103bf5781601f849311610462575b50602090601f83116001146103fc575f926103f1575b50508160011b915f199060031b1c1916176004555b61018b81610645565b61012052610198836107d8565b6101405260208151910120918260e05251902080610100524660a05283519060208201927f8b73c3c69bb8fe3d512ecc4cf759cc79239f7b179b0ffacaa9a75d522b39400f84528583015260608201524660808201523060a082015260a0815261020360c0826105cd565b5190206080523060c05282516001600160401b0381116103dd57600a54600181811c911680156103d3575b60208210146103bf57601f8111610351575b506020601f82116001146102ee57819293945f926102e3575b50508160011b915f199060031b1c191617600a555b600980546001600160a81b03191633179055600b80546001600160a01b031916919091179055516115fa908161091d823960805181610ff9015260a051816110b6015260c05181610fc3015260e051816110480152610100518161106e015261012051816107f40152610140518161081d0152f35b015190505f80610259565b601f19821690600a5f52805f20915f5b81811061033957509583600195969710610321575b505050811b01600a5561026e565b01515f1960f88460031b161c191690555f8080610313565b9192602060018192868b0151815501940192016102fe565b8181111561024057600a5f52601f820160051c7fc65a7bb8d6351c1cf70c95a316cc6a92839c986682d98bc35f958f4883f9d2a8602084106103b7575b81601f9101920160051c03905f5b8281106103aa575050610240565b5f8282015560010161039c565b5f915061038e565b634e487b7160e01b5f52602260045260245ffd5b90607f169061022e565b634e487b7160e01b5f52604160045260245ffd5b015190505f8061016d565b60045f9081528281209350601f198516905b81811061044a5750908460019594939210610432575b505050811b01600455610182565b01515f1960f88460031b161c191690555f8080610424565b9293602060018192878601518155019501930161040e565b828111156101575760045f52909150601f830160051c7f8a35acfbc15ff81a39ae7d344fd709f28e8600b4aa8c65c6b64bfe7fe36bd19b602085106104d0575b849392601f0160051c82900391015f5b8281106104c0575050610157565b5f818301558594506001016104b2565b5f91506104a2565b91607f1691610143565b90508301515f61010c565b60035f9081528181209250601f198416905b81811061053957509083600194939210610521575b5050811b01600355610120565b8501515f1960f88460031b161c191690555f80610514565b9192602060018192868a0151815501940192016104ff565b818111156100f65760035f52601f820160051c7fc2575a0e9e593c00f959f8c92f12db2869c3395a3b0502d05e2516446f71f85b602084106105b7575b81601f9101920160051c03905f5b8281106105aa5750506100f6565b5f8282015560010161059c565b5f915061058e565b90607f16906100e4565b5f80fd5b601f909101601f19168101906001600160401b038211908210176103dd57604052565b81601f820112156105c9578051906001600160401b0382116103dd5760405192610624601f8401601f1916602001856105cd565b828452602083830101116105c957815f9260208093018386015e8301015290565b908151602081105f146106bf575090601f81511161067f576020815191015160208210610670571790565b5f198260200360031b1b161790565b604460209160405192839163305a27a960e01b83528160048401528051918291826024860152018484015e5f828201840152601f01601f19168101030190fd5b6001600160401b0381116103dd57600554600181811c911680156107ce575b60208210146103bf57601f811161078f575b50602092601f821160011461072e57928192935f92610723575b50508160011b915f199060031b1c19161760055560ff90565b015190505f8061070a565b601f1982169360055f52805f20915f5b868110610777575083600195961061075f575b505050811b0160055560ff90565b01515f1960f88460031b161c191690555f8080610751565b9192602060018192868501518155019401920161073e565b818111156106f05760055f5260205f20601f80840160051c809201920160051c03905f5b8281106107c15750506106f0565b5f828201556001016107b3565b90607f16906106de565b908151602081105f14610803575090601f81511161067f576020815191015160208210610670571790565b6001600160401b0381116103dd57600654600181811c91168015610912575b60208210146103bf57601f81116108d3575b50602092601f821160011461087257928192935f92610867575b50508160011b915f199060031b1c19161760065560ff90565b015190505f8061084e565b601f1982169360065f52805f20915f5b8681106108bb57508360019596106108a3575b505050811b0160065560ff90565b01515f1960f88460031b161c191690555f8080610895565b91926020600181928685015181550194019201610882565b818111156108345760065f5260205f20601f80840160051c809201920160051c03905f5b828110610905575050610834565b5f828201556001016108f7565b90607f169061082256fe60806040526004361015610011575f80fd5b5f3560e01c806306fdde0314610144578063095ea7b31461013f57806310ce43bd1461013a57806318160ddd1461013557806323b872dd14610130578063313ce5671461012b5780633644e5151461012657806339509351146101215780633c130d901461011c57806342966c68146101175780636a6278421461011257806370a082311461010d5780637ecebe001461010857806384b0196e1461010357806395d89b41146100fe578063a457c2d7146100f9578063a9059cbb146100f4578063d505accf146100ef5763dd62ed3e146100ea575f80fd5b610ba9565b610a4e565b610a28565b61097e565b6108d9565b6107dc565b6107a4565b61076d565b6106b4565b6105db565b610536565b610474565b610452565b610437565b61036e565b610351565b6102bc565b61028b565b610181565b805180835260209291819084018484015e5f828201840152601f01601f1916010190565b90602061017e928181520190610149565b90565b3461025b575f36600319011261025b576040515f6003546101a1816104c8565b808452906001811690811561023757506001146101d9575b6101d5836101c981850382610500565b6040519182918261016d565b0390f35b60035f9081527fc2575a0e9e593c00f959f8c92f12db2869c3395a3b0502d05e2516446f71f85b939250905b80821061021d575090915081016020016101c96101b9565b919260018160209254838588010152019101909291610205565b60ff191660208086019190915291151560051b840190910191506101c990506101b9565b5f80fd5b600435906001600160a01b038216820361025b57565b602435906001600160a01b038216820361025b57565b3461025b57604036600319011261025b576102b16102a761025f565b6024359033610cc7565b602060405160018152f35b3461025b575f36600319011261025b57602060526040516102de608082610500565b818152712c75696e7432353620646561646c696e652960701b6060848301927f5065726d69742861646472657373206f776e65722c616464726573732073706584527f6e6465722c75696e743235362076616c75652c75696e74323536206e6f6e63656040820152015220604051908152f35b3461025b575f36600319011261025b576020600254604051908152f35b3461025b57606036600319011261025b5761038761025f565b61038f610275565b6001600160a01b0382165f9081526001602081815260408084203385529091529091205492604435929184016103d6575b6103ca9350610eac565b60405160018152602090f35b8284106103f2576103ed836103ca95033383610cc7565b6103c0565b60405162461bcd60e51b815260206004820152601d60248201527f45524332303a20696e73756666696369656e7420616c6c6f77616e63650000006044820152606490fd5b3461025b575f36600319011261025b57602060405160128152f35b3461025b575f36600319011261025b57602061046c610fc0565b604051908152f35b3461025b57604036600319011261025b576102b161049061025f565b6104c1602435335f5260016020526104bb8360405f209060018060a01b03165f5260205260405f2090565b54610c00565b9033610cc7565b90600182811c921680156104f6575b60208310146104e257565b634e487b7160e01b5f52602260045260245ffd5b91607f16916104d7565b90601f8019910116810190811067ffffffffffffffff82111761052257604052565b634e487b7160e01b5f52604160045260245ffd5b3461025b575f36600319011261025b576040515f600a54610556816104c8565b8084529060018116908115610237575060011461057d576101d5836101c981850382610500565b600a5f9081527fc65a7bb8d6351c1cf70c95a316cc6a92839c986682d98bc35f958f4883f9d2a8939250905b8082106105c1575090915081016020016101c96101b9565b9192600181602092548385880101520191019092916105a9565b3461025b57602036600319011261025b57600435331561066557335f908152602081905260408120909190819054610615828210156110dc565b335f90815260208190526040902091900390556106358160025403600255565b60405190815233907fddf252ad1be2c89b69c2b068fc378daa952ba7f163c4a11628f55a4df523b3ef90602090a3005b60405162461bcd60e51b815260206004820152602160248201527f45524332303a206275726e2066726f6d20746865207a65726f206164647265736044820152607360f81b6064820152608490fd5b3461025b57602036600319011261025b576106cd61025f565b600954906001600160a01b0382163303610728576107016106fc6106f86107129460ff9060a01c1690565b1590565b610c21565b61070d60025415610c21565b611133565b6009805460ff60a01b1916600160a01b1790555b005b60405162461bcd60e51b815260206004820152601d60248201527f496e76616c696420746f6b656e20666163746f727920616464726573730000006044820152606490fd5b3461025b57602036600319011261025b576001600160a01b0361078e61025f565b165f525f602052602060405f2054604051908152f35b3461025b57602036600319011261025b576001600160a01b036107c561025f565b165f526007602052602060405f2054604051908152f35b3461025b575f36600319011261025b576108806108187f000000000000000000000000000000000000000000000000000000000000000061121b565b6108417f00000000000000000000000000000000000000000000000000000000000000006112e0565b60206040516108508282610500565b5f81528161088e81830194601f198301368737604051978897600f60f81b895260e0858a015260e0890190610149565b908782036040890152610149565b914660608701523060808701525f60a087015285830360c087015251918281520192915f5b8281106108c257505050500390f35b8351855286955093810193928101926001016108b3565b3461025b575f36600319011261025b576040515f6004546108f9816104c8565b80845290600181169081156102375750600114610920576101d5836101c981850382610500565b60045f9081527f8a35acfbc15ff81a39ae7d344fd709f28e8600b4aa8c65c6b64bfe7fe36bd19b939250905b808210610964575090915081016020016101c96101b9565b91926001816020925483858801015201910190929161094c565b3461025b57604036600319011261025b5761099761025f565b60243590335f5260016020526109c08160405f209060018060a01b03165f5260205260405f2090565b54918083106109d5576103ca92039033610cc7565b60405162461bcd60e51b815260206004820152602560248201527f45524332303a2064656372656173656420616c6c6f77616e63652062656c6f77604482015264207a65726f60d81b6064820152608490fd5b3461025b57604036600319011261025b576102b1610a4461025f565b6024359033610eac565b3461025b5760e036600319011261025b57610a6761025f565b610a6f610275565b604435906064359260843560ff8116810361025b5760a4359460c435814211610b645761072696610b5f93610b478689610b3f8a610b31610b4c99610acd8660018060a01b03165f52600760205260405f2090815491600183019055565b604051958694602086019889919260a093969594919660c08401977f6e71edae12b1b97f4d1f60370fef10105fa2faae0126114a169c64845d6126c98552600180871b03166020850152600180861b03166040840152606083015260808201520152565b03601f198101835282610500565b519020611385565b6113ab565b6001600160a01b03838116911614610c7b565b610cc7565b60405162461bcd60e51b815260206004820152601d60248201527f45524332305065726d69743a206578706972656420646561646c696e650000006044820152606490fd5b3461025b57604036600319011261025b576020610bf7610bc761025f565b610bcf610275565b6001600160a01b039182165f9081526001855260408082209290931681526020919091522090565b54604051908152f35b91908201809211610c0d57565b634e487b7160e01b5f52601160045260245ffd5b15610c2857565b60405162461bcd60e51b815260206004820152602560248201527f496e76616c69643a20546f6b656e2063616e206d696e74206f6e6c79206f6e656044820152642074696d6560d81b6064820152608490fd5b15610c8257565b60405162461bcd60e51b815260206004820152601e60248201527f45524332305065726d69743a20696e76616c6964207369676e617475726500006044820152606490fd5b6001600160a01b03811691908215610da8576001600160a01b038216938415610d585780610d427f8c5be1e5ebec7d5bd14f71427d1e84f3dd0314c0f7b2291e5b200ac8c7c3b92594610d2d610d539560018060a01b03165f52600160205260405f2090565b9060018060a01b03165f5260205260405f2090565b556040519081529081906020820190565b0390a3565b60405162461bcd60e51b815260206004820152602260248201527f45524332303a20617070726f766520746f20746865207a65726f206164647265604482015261737360f01b6064820152608490fd5b60405162461bcd60e51b8152602060048201526024808201527f45524332303a20617070726f76652066726f6d20746865207a65726f206164646044820152637265737360e01b6064820152608490fd5b15610e0057565b60405162461bcd60e51b815260206004820152602360248201527f45524332303a207472616e7366657220746f20746865207a65726f206164647260448201526265737360e81b6064820152608490fd5b15610e5857565b60405162461bcd60e51b815260206004820152602660248201527f45524332303a207472616e7366657220616d6f756e7420657863656564732062604482015265616c616e636560d01b6064820152608490fd5b916001600160a01b038316918215610f6d577fddf252ad1be2c89b69c2b068fc378daa952ba7f163c4a11628f55a4df523b3ef91610f57610d539260018060a01b03811696610efc881515610df9565b610f3d84610f198360018060a01b03165f525f60205260405f2090565b54610f2682821015610e51565b039160018060a01b03165f525f60205260405f2090565b556001600160a01b03165f90815260208190526040902090565b8054820190556040519081529081906020820190565b60405162461bcd60e51b815260206004820152602560248201527f45524332303a207472616e736665722066726f6d20746865207a65726f206164604482015264647265737360d81b6064820152608490fd5b307f00000000000000000000000000000000000000000000000000000000000000006001600160a01b031614806110b3575b1561101b577f000000000000000000000000000000000000000000000000000000000000000090565b60405160208101907f8b73c3c69bb8fe3d512ecc4cf759cc79239f7b179b0ffacaa9a75d522b39400f82527f000000000000000000000000000000000000000000000000000000000000000060408201527f000000000000000000000000000000000000000000000000000000000000000060608201524660808201523060a082015260a081526110ad60c082610500565b51902090565b507f00000000000000000000000000000000000000000000000000000000000000004614610ff2565b156110e357565b60405162461bcd60e51b815260206004820152602260248201527f45524332303a206275726e20616d6f756e7420657863656564732062616c616e604482015261636560f01b6064820152608490fd5b6001600160a01b0381169081156111d657600254906b033b2e3c9fd0803ce80000008201809211610c0d5761116a61118392600255565b6001600160a01b03165f90815260208190526040902090565b6b033b2e3c9fd0803ce800000081540190555f7fddf252ad1be2c89b69c2b068fc378daa952ba7f163c4a11628f55a4df523b3ef60405180610d536b033b2e3c9fd0803ce8000000829190602083019252565b60405162461bcd60e51b815260206004820152601f60248201527f45524332303a206d696e7420746f20746865207a65726f2061646472657373006044820152606490fd5b60ff811461122c5761017e906113c2565b50604051600554815f61123e836104c8565b80835292600181169081156112c15750600114611262575b61017e92500382610500565b5060055f90815290917f036b6384b5eca791c62761152d0c79bb0604c104a5fb6f4eb0703f3154bb3db05b8183106112a557505090602061017e92820101611256565b602091935080600191548385880101520191019091839261128d565b6020925061017e94915060ff191682840152151560051b820101611256565b60ff81146112f15761017e906113c2565b50604051600654815f611303836104c8565b80835292600181169081156112c157506001146113265761017e92500382610500565b5060065f90815290917ff652222313e28459528d920b65115c16c04f3efc82aaedc97be59f3f377c0d3f5b81831061136957505090602061017e92820101611256565b6020919350806001915483858801015201910190918392611351565b604290611390610fc0565b906040519161190160f01b8352600283015260228201522090565b9161017e93916113ba93611400565b9190916114a4565b60ff811690601f82116113f157604051916113de604084610500565b6020808452838101919036833783525290565b632cd44ac360e21b5f5260045ffd5b7f7fffffffffffffffffffffffffffffff5d576e7357a4501ddfe92f46681b20a0841161147b576020935f9360ff60809460405194855216868401526040830152606082015282805260015afa15611470575f516001600160a01b0381161561146857905f90565b505f90600190565b6040513d5f823e3d90fd5b505050505f90600390565b6005111561149057565b634e487b7160e01b5f52602160045260245ffd5b6114ad81611486565b806114b55750565b6114be81611486565b6001810361150b5760405162461bcd60e51b815260206004820152601860248201527f45434453413a20696e76616c6964207369676e617475726500000000000000006044820152606490fd5b61151481611486565b600281036115615760405162461bcd60e51b815260206004820152601f60248201527f45434453413a20696e76616c6964207369676e6174757265206c656e677468006044820152606490fd5b8061156d600392611486565b1461157457565b60405162461bcd60e51b815260206004820152602260248201527f45434453413a20696e76616c6964207369676e6174757265202773272076616c604482015261756560f01b6064820152608490fdfea2646970667358221220fd98e075537e56a14c5f627b51d45f452a01b08e2f9ef1951b50cc107548436664736f6c63430008220033a2646970667358221220a5d3b92f5d4c02e82d3b345785b2216699b5e66e7f6cc49f24ce0bc7dd79346664736f6c63430008220033","linkReferences":{}},"methodIdentifiers":{"WMON()":"f1435d29","create(address,string,string,string)":"58192547","getBc(address)":"591af185","getConfig()":"c3f909d4","getDelpyFee()":"8efc549a","getDexFactory()":"e0ef2dd8","getFeeConfig()":"5fbbc0d2","getGNad()":"787e1880","getK()":"ee39e7a0","getListingFee()":"b8fe6abe","getOwner()":"893d20e8","initialize((uint256,uint256,uint256,uint256,uint256,uint256,uint16,uint8,address))":"efc2b915","setDexFactory(address)":"207c2d3e","setGNad(address)":"86079d4b","setOwner(address)":"13af4035"},"id":41}