{"abi":[{"type":"constructor","inputs":[],"stateMutability":"nonpayable"},{"type":"fallback","stateMutability":"payable"},{"type":"receive","stateMutability":"payable"},{"type":"function","name":"DOMAIN_SEPARATOR","inputs":[],"outputs":[{"name":"","type":"bytes32","internalType":"bytes32"}],"stateMutability":"view"},{"type":"function","name":"allowance","inputs":[{"name":"owner","type":"address","internalType":"address"},{"name":"spender","type":"address","internalType":"address"}],"outputs":[{"name":"","type":"uint256","internalType":"uint256"}],"stateMutability":"view"},{"type":"function","name":"approve","inputs":[{"name":"spender","type":"address","internalType":"address"},{"name":"amount","type":"uint256","internalType":"uint256"}],"outputs":[{"name":"","type":"bool","internalType":"bool"}],"stateMutability":"nonpayable"},{"type":"function","name":"balanceOf","inputs":[{"name":"account","type":"address","internalType":"address"}],"outputs":[{"name":"","type":"uint256","internalType":"uint256"}],"stateMutability":"view"},{"type":"function","name":"decimals","inputs":[],"outputs":[{"name":"","type":"uint8","internalType":"uint8"}],"stateMutability":"view"},{"type":"function","name":"decreaseAllowance","inputs":[{"name":"spender","type":"address","internalType":"address"},{"name":"subtractedValue","type":"uint256","internalType":"uint256"}],"outputs":[{"name":"","type":"bool","internalType":"bool"}],"stateMutability":"nonpayable"},{"type":"function","name":"deposit","inputs":[],"outputs":[],"stateMutability":"payable"},{"type":"function","name":"eip712Domain","inputs":[],"outputs":[{"name":"fields","type":"bytes1","internalType":"bytes1"},{"name":"name","type":"string","internalType":"string"},{"name":"version","type":"string","internalType":"string"},{"name":"chainId","type":"uint256","internalType":"uint256"},{"name":"verifyingContract","type":"address","internalType":"address"},{"name":"salt","type":"bytes32","internalType":"bytes32"},{"name":"extensions","type":"uint256[]","internalType":"uint256[]"}],"stateMutability":"view"},{"type":"function","name":"increaseAllowance","inputs":[{"name":"spender","type":"address","internalType":"address"},{"name":"addedValue","type":"uint256","internalType":"uint256"}],"outputs":[{"name":"","type":"bool","internalType":"bool"}],"stateMutability":"nonpayable"},{"type":"function","name":"name","inputs":[],"outputs":[{"name":"","type":"string","internalType":"string"}],"stateMutability":"view"},{"type":"function","name":"nonces","inputs":[{"name":"owner","type":"address","internalType":"address"}],"outputs":[{"name":"","type":"uint256","internalType":"uint256"}],"stateMutability":"view"},{"type":"function","name":"permit","inputs":[{"name":"owner","type":"address","internalType":"address"},{"name":"spender","type":"address","internalType":"address"},{"name":"value","type":"uint256","internalType":"uint256"},{"name":"deadline","type":"uint256","internalType":"uint256"},{"name":"v","type":"uint8","internalType":"uint8"},{"name":"r","type":"bytes32","internalType":"bytes32"},{"name":"s","type":"bytes32","internalType":"bytes32"}],"outputs":[],"stateMutability":"nonpayable"},{"type":"function","name":"permitTypeHash","inputs":[],"outputs":[{"name":"x","type":"bytes32","internalType":"bytes32"}],"stateMutability":"pure"},{"type":"function","name":"symbol","inputs":[],"outputs":[{"name":"","type":"string","internalType":"string"}],"stateMutability":"view"},{"type":"function","name":"totalSupply","inputs":[],"outputs":[{"name":"","type":"uint256","internalType":"uint256"}],"stateMutability":"view"},{"type":"function","name":"transfer","inputs":[{"name":"to","type":"address","internalType":"address"},{"name":"amount","type":"uint256","internalType":"uint256"}],"outputs":[{"name":"","type":"bool","internalType":"bool"}],"stateMutability":"nonpayable"},{"type":"function","name":"transferFrom","inputs":[{"name":"from","type":"address","internalType":"address"},{"name":"to","type":"address","internalType":"address"},{"name":"amount","type":"uint256","internalType":"uint256"}],"outputs":[{"name":"","type":"bool","internalType":"bool"}],"stateMutability":"nonpayable"},{"type":"function","name":"withdraw","inputs":[{"name":"amount","type":"uint256","internalType":"uint256"}],"outputs":[],"stateMutability":"nonpayable"},{"type":"event","name":"Approval","inputs":[{"name":"owner","type":"address","indexed":true,"internalType":"address"},{"name":"spender","type":"address","indexed":true,"internalType":"address"},{"name":"value","type":"uint256","indexed":false,"internalType":"uint256"}],"anonymous":false},{"type":"event","name":"Deposit","inputs":[{"name":"to","type":"address","indexed":true,"internalType":"address"},{"name":"amount","type":"uint256","indexed":false,"internalType":"uint256"}],"anonymous":false},{"type":"event","name":"EIP712DomainChanged","inputs":[],"anonymous":false},{"type":"event","name":"Transfer","inputs":[{"name":"from","type":"address","indexed":true,"internalType":"address"},{"name":"to","type":"address","indexed":true,"internalType":"address"},{"name":"value","type":"uint256","indexed":false,"internalType":"uint256"}],"anonymous":false},{"type":"event","name":"Withdrawal","inputs":[{"name":"from","type":"address","indexed":true,"internalType":"address"},{"name":"amount","type":"uint256","indexed":false,"internalType":"uint256"}],"anonymous":false},{"type":"error","name":"InvalidShortString","inputs":[]},{"type":"error","name":"StringTooLong","inputs":[{"name":"str","type":"string","internalType":"string"}]}],"bytecode":{"object":"0x6101606040523461044b5760405161001860408261044f565b6004815260208101632ba6a7a760e11b81526040519061003960408361044f565b601382527f57726170706564204d6f6e616420546f6b656e0000000000000000000000000060208301526040519261007260408561044f565b60048452632ba6b7b760e11b60208501526040519361009260408661044f565b60018552603160f81b60208601908152845190946001600160401b0382116103465760035490600182811c92168015610441575b60208310146103285781601f8493116103cb575b50602090601f8311600114610365575f9261035a575b50508160011b915f199060031b1c1916176003555b8051906001600160401b0382116103465760045490600182811c9216801561033c575b60208310146103285781601f8493116102b2575b50602090601f831160011461024c575f92610241575b50508160011b915f199060031b1c1916176004555b61017081610472565b6101205261017d84610605565b61014052519020918260e05251902080610100524660a0526040519060208201927f8b73c3c69bb8fe3d512ecc4cf759cc79239f7b179b0ffacaa9a75d522b39400f8452604083015260608201524660808201523060a082015260a081526101e660c08261044f565b5190206080523060c0526040516114e2908161074a823960805181611131015260a051816111ee015260c051816110fb015260e05181611180015261010051816111a6015261012051816106030152610140518161062c0152f35b015190505f80610152565b60045f9081528281209350601f198516905b81811061029a5750908460019594939210610282575b505050811b01600455610167565b01515f1960f88460031b161c191690555f8080610274565b9293602060018192878601518155019501930161025e565b8281111561013c5760045f52909150601f830160051c7f8a35acfbc15ff81a39ae7d344fd709f28e8600b4aa8c65c6b64bfe7fe36bd19b60208510610320575b849392601f0160051c82900391015f5b82811061031057505061013c565b5f81830155859450600101610302565b5f91506102f2565b634e487b7160e01b5f52602260045260245ffd5b91607f1691610128565b634e487b7160e01b5f52604160045260245ffd5b015190505f806100f0565b60035f9081528281209350601f198516905b8181106103b3575090846001959493921061039b575b505050811b01600355610105565b01515f1960f88460031b161c191690555f808061038d565b92936020600181928786015181550195019301610377565b828111156100da5760035f52909150601f830160051c7fc2575a0e9e593c00f959f8c92f12db2869c3395a3b0502d05e2516446f71f85b60208510610439575b849392601f0160051c82900391015f5b8281106104295750506100da565b5f8183015585945060010161041b565b5f915061040b565b91607f16916100c6565b5f80fd5b601f909101601f19168101906001600160401b0382119082101761034657604052565b908151602081105f146104ec575090601f8151116104ac57602081519101516020821061049d571790565b5f198260200360031b1b161790565b604460209160405192839163305a27a960e01b83528160048401528051918291826024860152018484015e5f828201840152601f01601f19168101030190fd5b6001600160401b03811161034657600554600181811c911680156105fb575b602082101461032857601f81116105bc575b50602092601f821160011461055b57928192935f92610550575b50508160011b915f199060031b1c19161760055560ff90565b015190505f80610537565b601f1982169360055f52805f20915f5b8681106105a4575083600195961061058c575b505050811b0160055560ff90565b01515f1960f88460031b161c191690555f808061057e565b9192602060018192868501518155019401920161056b565b8181111561051d5760055f5260205f20601f80840160051c809201920160051c03905f5b8281106105ee57505061051d565b5f828201556001016105e0565b90607f169061050b565b908151602081105f14610630575090601f8151116104ac57602081519101516020821061049d571790565b6001600160401b03811161034657600654600181811c9116801561073f575b602082101461032857601f8111610700575b50602092601f821160011461069f57928192935f92610694575b50508160011b915f199060031b1c19161760065560ff90565b015190505f8061067b565b601f1982169360065f52805f20915f5b8681106106e857508360019596106106d0575b505050811b0160065560ff90565b01515f1960f88460031b161c191690555f80806106c2565b919260206001819286850151815501940192016106af565b818111156106615760065f5260205f20601f80840160051c809201920160051c03905f5b828110610732575050610661565b5f82820155600101610724565b90607f169061064f56fe60806040526004361015610026575b361561001e5761001c610bb8565b005b61001c610bb8565b5f3560e01c806306fdde0314610145578063095ea7b31461014057806310ce43bd1461013b57806318160ddd1461013657806323b872dd146101315780632e1a7d4d1461012c578063313ce567146101275780633644e51514610122578063395093511461011d57806370a08231146101185780637ecebe001461011357806384b0196e1461010e57806395d89b4114610109578063a457c2d714610104578063a9059cbb146100ff578063d0e30db0146100fa578063d505accf146100f55763dd62ed3e0361000e576109cb565b610870565b61085d565b610837565b61078d565b6106e8565b6105eb565b6105b3565b61057c565b610528565b610506565b6104eb565b610438565b61036f565b610352565b6102bd565b61028c565b610182565b805180835260209291819084018484015e5f828201840152601f01601f1916010190565b90602061017f92818152019061014a565b90565b3461025c575f36600319011261025c576040515f6003546101a281610a22565b808452906001811690811561023857506001146101da575b6101d6836101ca81850382610aef565b6040519182918261016e565b0390f35b60035f9081527fc2575a0e9e593c00f959f8c92f12db2869c3395a3b0502d05e2516446f71f85b939250905b80821061021e575090915081016020016101ca6101ba565b919260018160209254838588010152019101909291610206565b60ff191660208086019190915291151560051b840190910191506101ca90506101ba565b5f80fd5b600435906001600160a01b038216820361025c57565b602435906001600160a01b038216820361025c57565b3461025c57604036600319011261025c576102b26102a8610260565b6024359033610ccf565b602060405160018152f35b3461025c575f36600319011261025c57602060526040516102df608082610aef565b818152712c75696e7432353620646561646c696e652960701b6060848301927f5065726d69742861646472657373206f776e65722c616464726573732073706584527f6e6465722c75696e743235362076616c75652c75696e74323536206e6f6e63656040820152015220604051908152f35b3461025c575f36600319011261025c576020600254604051908152f35b3461025c57606036600319011261025c57610388610260565b610390610276565b6001600160a01b0382165f9081526001602081815260408084203385529091529091205492604435929184016103d7575b6103cb9350610eb4565b60405160018152602090f35b8284106103f3576103ee836103cb95033383610ccf565b6103c1565b60405162461bcd60e51b815260206004820152601d60248201527f45524332303a20696e73756666696369656e7420616c6c6f77616e63650000006044820152606490fd5b3461025c57602036600319011261025c57600435335f525f6020528060405f2054106104af575f8080808461047061001c9633610fc8565b60405181815233907f7fcf532c15f0a6db0bd6d0e038bea71d30d808c7d98cb3bf7268a95bf5081b6590602090a2335af16104a9610b16565b50610b55565b60405162461bcd60e51b8152602060048201526014602482015273496e73756666696369656e742062616c616e636560601b6044820152606490fd5b3461025c575f36600319011261025c57602060405160128152f35b3461025c575f36600319011261025c5760206105206110f8565b604051908152f35b3461025c57604036600319011261025c576102b2610544610260565b610575602435335f52600160205261056f8360405f209060018060a01b03165f5260205260405f2090565b54610b97565b9033610ccf565b3461025c57602036600319011261025c576001600160a01b0361059d610260565b165f525f602052602060405f2054604051908152f35b3461025c57602036600319011261025c576001600160a01b036105d4610260565b165f526007602052602060405f2054604051908152f35b3461025c575f36600319011261025c5761068f6106277f0000000000000000000000000000000000000000000000000000000000000000611214565b6106507f0000000000000000000000000000000000000000000000000000000000000000611274565b602060405161065f8282610aef565b5f81528161069d81830194601f198301368737604051978897600f60f81b895260e0858a015260e089019061014a565b90878203604089015261014a565b914660608701523060808701525f60a087015285830360c087015251918281520192915f5b8281106106d157505050500390f35b8351855286955093810193928101926001016106c2565b3461025c575f36600319011261025c576040515f60045461070881610a22565b8084529060018116908115610238575060011461072f576101d6836101ca81850382610aef565b60045f9081527f8a35acfbc15ff81a39ae7d344fd709f28e8600b4aa8c65c6b64bfe7fe36bd19b939250905b808210610773575090915081016020016101ca6101ba565b91926001816020925483858801015201910190929161075b565b3461025c57604036600319011261025c576107a6610260565b60243590335f5260016020526107cf8160405f209060018060a01b03165f5260205260405f2090565b54918083106107e4576103cb92039033610ccf565b60405162461bcd60e51b815260206004820152602560248201527f45524332303a2064656372656173656420616c6c6f77616e63652062656c6f77604482015264207a65726f60d81b6064820152608490fd5b3461025c57604036600319011261025c576102b2610853610260565b6024359033610eb4565b5f36600319011261025c5761001c610bb8565b3461025c5760e036600319011261025c57610889610260565b610891610276565b604435906064359260843560ff8116810361025c5760a4359460c4358142116109865761001c966109819361096986896109618a61095361096e996108ef8660018060a01b03165f52600760205260405f2090815491600183019055565b604051958694602086019889919260a093969594919660c08401977f6e71edae12b1b97f4d1f60370fef10105fa2faae0126114a169c64845d6126c98552600180871b03166020850152600180861b03166040840152606083015260808201520152565b03601f198101835282610aef565b5190206112ab565b6112d1565b6001600160a01b03838116911614610c83565b610ccf565b60405162461bcd60e51b815260206004820152601d60248201527f45524332305065726d69743a206578706972656420646561646c696e650000006044820152606490fd5b3461025c57604036600319011261025c576020610a196109e9610260565b6109f1610276565b6001600160a01b039182165f9081526001855260408082209290931681526020919091522090565b54604051908152f35b90600182811c92168015610a50575b6020831014610a3c57565b634e487b7160e01b5f52602260045260245ffd5b91607f1691610a31565b5f9291815491610a6983610a22565b8083529260018116908115610abe5750600114610a8557505050565b5f9081526020812093945091925b838310610aa4575060209250010190565b600181602092949394548385870101520191019190610a93565b915050602093945060ff929192191683830152151560051b010190565b634e487b7160e01b5f52604160045260245ffd5b90601f8019910116810190811067ffffffffffffffff821117610b1157604052565b610adb565b3d15610b50573d9067ffffffffffffffff8211610b115760405191610b45601f8201601f191660200184610aef565b82523d5f602084013e565b606090565b15610b5c57565b60405162461bcd60e51b8152602060048201526013602482015272115512081d1c985b9cd9995c8819985a5b1959606a1b6044820152606490fd5b91908201809211610ba457565b634e487b7160e01b5f52601160045260245ffd5b3315610c3e57610bca34600254610b97565b600255335f8181526020818152604080832080543490810190915590519081527fddf252ad1be2c89b69c2b068fc378daa952ba7f163c4a11628f55a4df523b3ef9190a360405134815233907fe1fffcc4923d04b559f4d29a8bfc6cda04eb5b0d3c460751c2402c5c5cc9109c90602090a2565b60405162461bcd60e51b815260206004820152601f60248201527f45524332303a206d696e7420746f20746865207a65726f2061646472657373006044820152606490fd5b15610c8a57565b60405162461bcd60e51b815260206004820152601e60248201527f45524332305065726d69743a20696e76616c6964207369676e617475726500006044820152606490fd5b6001600160a01b03811691908215610db0576001600160a01b038216938415610d605780610d4a7f8c5be1e5ebec7d5bd14f71427d1e84f3dd0314c0f7b2291e5b200ac8c7c3b92594610d35610d5b9560018060a01b03165f52600160205260405f2090565b9060018060a01b03165f5260205260405f2090565b556040519081529081906020820190565b0390a3565b60405162461bcd60e51b815260206004820152602260248201527f45524332303a20617070726f766520746f20746865207a65726f206164647265604482015261737360f01b6064820152608490fd5b60405162461bcd60e51b8152602060048201526024808201527f45524332303a20617070726f76652066726f6d20746865207a65726f206164646044820152637265737360e01b6064820152608490fd5b15610e0857565b60405162461bcd60e51b815260206004820152602360248201527f45524332303a207472616e7366657220746f20746865207a65726f206164647260448201526265737360e81b6064820152608490fd5b15610e6057565b60405162461bcd60e51b815260206004820152602660248201527f45524332303a207472616e7366657220616d6f756e7420657863656564732062604482015265616c616e636560d01b6064820152608490fd5b916001600160a01b038316918215610f75577fddf252ad1be2c89b69c2b068fc378daa952ba7f163c4a11628f55a4df523b3ef91610f5f610d5b9260018060a01b03811696610f04881515610e01565b610f4584610f218360018060a01b03165f525f60205260405f2090565b54610f2e82821015610e59565b039160018060a01b03165f525f60205260405f2090565b556001600160a01b03165f90815260208190526040902090565b8054820190556040519081529081906020820190565b60405162461bcd60e51b815260206004820152602560248201527f45524332303a207472616e736665722066726f6d20746865207a65726f206164604482015264647265737360d81b6064820152608490fd5b6001600160a01b0381169081156110a9576001600160a01b0381165f9081526020819052604090205483811061105957837fddf252ad1be2c89b69c2b068fc378daa952ba7f163c4a11628f55a4df523b3ef9261103b5f96610d5b94039160018060a01b03165f525f60205260405f2090565b556110498160025403600255565b6040519081529081906020820190565b60405162461bcd60e51b815260206004820152602260248201527f45524332303a206275726e20616d6f756e7420657863656564732062616c616e604482015261636560f01b6064820152608490fd5b60405162461bcd60e51b815260206004820152602160248201527f45524332303a206275726e2066726f6d20746865207a65726f206164647265736044820152607360f81b6064820152608490fd5b307f00000000000000000000000000000000000000000000000000000000000000006001600160a01b031614806111eb575b15611153577f000000000000000000000000000000000000000000000000000000000000000090565b60405160208101907f8b73c3c69bb8fe3d512ecc4cf759cc79239f7b179b0ffacaa9a75d522b39400f82527f000000000000000000000000000000000000000000000000000000000000000060408201527f000000000000000000000000000000000000000000000000000000000000000060608201524660808201523060a082015260a081526111e560c082610aef565b51902090565b507f0000000000000000000000000000000000000000000000000000000000000000461461112a565b60ff811461125a5760ff811690601f821161124b5760405191611238604084610aef565b6020808452838101919036833783525290565b632cd44ac360e21b5f5260045ffd5b5060405161017f8161126d816005610a5a565b0382610aef565b60ff81146112985760ff811690601f821161124b5760405191611238604084610aef565b5060405161017f8161126d816006610a5a565b6042906112b66110f8565b906040519161190160f01b8352600283015260228201522090565b9161017f93916112e0936112e8565b91909161138c565b7f7fffffffffffffffffffffffffffffff5d576e7357a4501ddfe92f46681b20a08411611363576020935f9360ff60809460405194855216868401526040830152606082015282805260015afa15611358575f516001600160a01b0381161561135057905f90565b505f90600190565b6040513d5f823e3d90fd5b505050505f90600390565b6005111561137857565b634e487b7160e01b5f52602160045260245ffd5b6113958161136e565b8061139d5750565b6113a68161136e565b600181036113f35760405162461bcd60e51b815260206004820152601860248201527f45434453413a20696e76616c6964207369676e617475726500000000000000006044820152606490fd5b6113fc8161136e565b600281036114495760405162461bcd60e51b815260206004820152601f60248201527f45434453413a20696e76616c6964207369676e6174757265206c656e677468006044820152606490fd5b8061145560039261136e565b1461145c57565b60405162461bcd60e51b815260206004820152602260248201527f45434453413a20696e76616c6964207369676e6174757265202773272076616c604482015261756560f01b6064820152608490fdfea26469706673582212200d20d36d23facef54051200303ca575d99e4c91c6f17d685870c4ba32ba0c7e264736f6c63430008220033","linkReferences":{}},"methodIdentifiers":{"DOMAIN_SEPARATOR()":"3644e515","allowance(address,address)":"dd62ed3e","approve(address,uint256)":"095ea7b3","balanceOf(address)":"70a08231","decimals()":"313ce567","decreaseAllowance(address,uint256)":"a457c2d7","deposit()":"d0e30db0","eip712Domain()":"84b0196e","increaseAllowance(address,uint256)":"39509351","name()":"06fdde03","nonces(address)":"7ecebe00","permit(address,address,uint256,uint256,uint8,bytes32,bytes32)":"d505accf","permitTypeHash()":"10ce43bd","symbol()":"95d89b41","totalSupply()":"18160ddd","transfer(address,uint256)":"a9059cbb","transferFrom(address,address,uint256)":"23b872dd","withdraw(uint256)":"2e1a7d4d"},"id":45}