{"abi":[{"type":"constructor","inputs":[{"name":"_gNad","type":"address","internalType":"address"},{"name":"_wMon","type":"address","internalType":"address"}],"stateMutability":"nonpayable"},{"type":"function","name":"WMON","inputs":[],"outputs":[{"name":"","type":"address","internalType":"address"}],"stateMutability":"view"},{"type":"function","name":"buy","inputs":[{"name":"to","type":"address","internalType":"address"},{"name":"amountOut","type":"uint256","internalType":"uint256"}],"outputs":[],"stateMutability":"nonpayable"},{"type":"function","name":"getFeeConfig","inputs":[],"outputs":[{"name":"denominator","type":"uint8","internalType":"uint8"},{"name":"numerator","type":"uint16","internalType":"uint16"}],"stateMutability":"view"},{"type":"function","name":"getIsListing","inputs":[],"outputs":[{"name":"","type":"bool","internalType":"bool"}],"stateMutability":"view"},{"type":"function","name":"getK","inputs":[],"outputs":[{"name":"","type":"uint256","internalType":"uint256"}],"stateMutability":"view"},{"type":"function","name":"getLock","inputs":[],"outputs":[{"name":"","type":"bool","internalType":"bool"}],"stateMutability":"view"},{"type":"function","name":"getLockedToken","inputs":[],"outputs":[{"name":"","type":"uint256","internalType":"uint256"}],"stateMutability":"view"},{"type":"function","name":"getReserves","inputs":[],"outputs":[{"name":"nativeReserves","type":"uint256","internalType":"uint256"},{"name":"tokenReserves","type":"uint256","internalType":"uint256"}],"stateMutability":"view"},{"type":"function","name":"getVirtualReserves","inputs":[],"outputs":[{"name":"virtualNativeReserve","type":"uint256","internalType":"uint256"},{"name":"virtualTokenReserve","type":"uint256","internalType":"uint256"}],"stateMutability":"view"},{"type":"function","name":"initialize","inputs":[{"name":"_token","type":"address","internalType":"address"},{"name":"_virtualNative","type":"uint256","internalType":"uint256"},{"name":"_virtualToken","type":"uint256","internalType":"uint256"},{"name":"_k","type":"uint256","internalType":"uint256"},{"name":"_lockedToken","type":"uint256","internalType":"uint256"},{"name":"_feeDenominator","type":"uint8","internalType":"uint8"},{"name":"_feeNumerator","type":"uint16","internalType":"uint16"}],"outputs":[],"stateMutability":"nonpayable"},{"type":"function","name":"isListing","inputs":[],"outputs":[{"name":"","type":"bool","internalType":"bool"}],"stateMutability":"view"},{"type":"function","name":"listing","inputs":[],"outputs":[{"name":"","type":"address","internalType":"address"}],"stateMutability":"nonpayable"},{"type":"function","name":"lock","inputs":[],"outputs":[{"name":"","type":"bool","internalType":"bool"}],"stateMutability":"view"},{"type":"function","name":"pair","inputs":[],"outputs":[{"name":"","type":"address","internalType":"address"}],"stateMutability":"view"},{"type":"function","name":"sell","inputs":[{"name":"to","type":"address","internalType":"address"},{"name":"amountOut","type":"uint256","internalType":"uint256"}],"outputs":[],"stateMutability":"nonpayable"},{"type":"function","name":"token","inputs":[],"outputs":[{"name":"","type":"address","internalType":"address"}],"stateMutability":"view"},{"type":"event","name":"Buy","inputs":[{"name":"sender","type":"address","indexed":true,"internalType":"address"},{"name":"token","type":"address","indexed":true,"internalType":"address"},{"name":"amountIn","type":"uint256","indexed":false,"internalType":"uint256"},{"name":"amountOut","type":"uint256","indexed":false,"internalType":"uint256"}],"anonymous":false},{"type":"event","name":"Listing","inputs":[{"name":"curve","type":"address","indexed":true,"internalType":"address"},{"name":"token","type":"address","indexed":true,"internalType":"address"},{"name":"pair","type":"address","indexed":true,"internalType":"address"},{"name":"listingWNativeAmount","type":"uint256","indexed":false,"internalType":"uint256"},{"name":"listingTokenAmount","type":"uint256","indexed":false,"internalType":"uint256"},{"name":"burnLiquidity","type":"uint256","indexed":false,"internalType":"uint256"}],"anonymous":false},{"type":"event","name":"Lock","inputs":[{"name":"token","type":"address","indexed":true,"internalType":"address"}],"anonymous":false},{"type":"event","name":"Sell","inputs":[{"name":"sender","type":"address","indexed":true,"internalType":"address"},{"name":"token","type":"address","indexed":true,"internalType":"address"},{"name":"amountIn","type":"uint256","indexed":false,"internalType":"uint256"},{"name":"amountOut","type":"uint256","indexed":false,"internalType":"uint256"}],"anonymous":false},{"type":"event","name":"Sync","inputs":[{"name":"token","type":"address","indexed":true,"internalType":"address"},{"name":"reserveWNative","type":"uint256","indexed":false,"internalType":"uint256"},{"name":"reserveToken","type":"uint256","indexed":false,"internalType":"uint256"},{"name":"virtualWNative","type":"uint256","indexed":false,"internalType":"uint256"},{"name":"virtualToken","type":"uint256","indexed":false,"internalType":"uint256"}],"anonymous":false}],"bytecode":{"object":"0x60e0346100b157601f6117c938819003918201601f19168301916001600160401b038311848410176100b55780849260409485528339810103126100b157610052602061004b836100c9565b92016100c9565b903360805260a05260c0526040516116eb90816100de82396080518181816105be0152610846015260a0518181816101db0152610ea1015260c051818181610130015281816102a90152818161063f015281816108a00152610f140152f35b5f80fd5b634e487b7160e01b5f52604160045260245ffd5b51906001600160a01b03821682036100b15756fe6080806040526004361015610012575f80fd5b5f905f3560e01c9081630902f1ac1461120d575080633366eeb2146111f05780635fbbc0d2146111c45780636c197ff514610e705780637e5852d914610e4e5780637f8f618414610e2a578063a8aa1b3114610e02578063bc7c55ed14610778578063c01716821461017d578063c228dae914610539578063cce7ec13146101a3578063e06ec0bb1461017d578063ee39e7a01461015f578063f1435d291461011a578063f83d08ba146100f75763fc0c546a146100ce575f80fd5b346100f457806003193601126100f457546040516001600160a01b039091168152602090f35b80fd5b50346100f457806003193601126100f457602060ff600954166040519015158152f35b50346100f457806003193601126100f4576040517f00000000000000000000000000000000000000000000000000000000000000006001600160a01b03168152602090f35b50346100f457806003193601126100f4576020600454604051908152f35b50346100f457806003193601126100f457602060ff60095460081c166040519015158152f35b50346100f45760403660031901126100f4576101bd611230565b602435906101d960ff60095416156101d361127c565b906112ec565b7f000000000000000000000000000000000000000000000000000000000000000090610217610206611314565b336001600160a01b038516146112ec565b61022a61022261135a565b8415156112ec565b60018060a01b03845416916102e7846007549261029b61024c836008546113e0565b600554111560405190610260606083611246565b602382527f426f6e64696e6743757276653a20494e56414c49445f4c4f434b45445f414d4f60208301526215539560ea1b60408301526112ec565b6001600160a01b03948516957f000000000000000000000000000000000000000000000000000000000000000090951694868614158061052f575b6102e2906101d36113a5565b611486565b6040516370a0823160e01b815230600482015290602082602481865afa9182156105245786926104ee575b506103216020916024936113e0565b92604051928380926370a0823160e01b82523060048301525afa9081156104b15785916104bc575b5060075583546040516370a0823160e01b815230600482015290602090829060249082906001600160a01b03165afa9081156104b157859161045b575b507f89f5adc174562e07c9c9b1cae7109bbecb21cf9d1b2847e550042b8653c54a0e916040916008556103bb816002546115e6565b6002556103ca856003546113e0565b60035560018060a01b038654167f27efe2fec96cb0ff68b9206e3dca402a919bb7172e2f2d12d49b633df3eabc4f60806007546008546002546003549188519384526020840152878301526060820152a261043a61042d60025460035490611401565b60045411156101d3611414565b60018060a01b038654169482519182526020820152a36104586115f3565b80f35b90506020813d6020116104a9575b8161047660209383611246565b810103126104a557517f89f5adc174562e07c9c9b1cae7109bbecb21cf9d1b2847e550042b8653c54a0e610386565b5f80fd5b3d9150610469565b6040513d87823e3d90fd5b90506020813d6020116104e6575b816104d760209383611246565b810103126104a557515f610349565b3d91506104ca565b91506020823d60201161051c575b8161050960209383611246565b810103126104a557905190610321610312565b3d91506104fc565b6040513d88823e3d90fd5b50868114156102d6565b50346100f45760e03660031901126100f457610553611230565b60a43560ff81168091036107745760c4359161ffff831690818403610770576105ec604051610583606082611246565b602581527f426f6e64696e6743757276653a20494e56414c49445f464143544f52595f4144602082015264445245535360d81b6040820152337f00000000000000000000000000000000000000000000000000000000000000006001600160a01b0316146112ec565b60018060a01b0316806bffffffffffffffffffffffff60a01b8654161785556024356002556044356003556064356004556040516370a0823160e01b815230600482015260208160248160018060a01b037f0000000000000000000000000000000000000000000000000000000000000000165afa90811561052457869161073d575b506007556040516370a0823160e01b815230600482015290602090829060249082905afa9081156104b157859161070b575b506008556084356005556040516040810181811067ffffffffffffffff8211176106f75790602091604052838152015262ffff006006549260081b169162ffffff1916171760065561ff00196009541660095580f35b634e487b7160e01b86526041600452602486fd5b90506020813d602011610735575b8161072660209383611246565b810103126104a557515f6106a1565b3d9150610719565b90506020813d602011610768575b8161075860209383611246565b810103126104a55751602461066f565b3d915061074b565b8480fd5b8280fd5b50346104a5575f3660031901126104a5576108376009546107e56040516107a0606082611246565b602481527f426f6e64696e6743757276653a20494e56414c49445f49545f49535f554e4c4f60208201526310d2d15160e21b6040820152600160ff84161515146112ec565b60ff604051916107f6606084611246565b602483527f426f6e64696e6743757276653a20494e56414c49445f414c52454144595f4c4960208401526314d5115160e21b604084015260081c16156112ec565b604051631c1de5bb60e31b81527f00000000000000000000000000000000000000000000000000000000000000006001600160a01b0316602082600481845afa918215610d6f575f92610de1575b505f80546040516364e329cb60e11b81526001600160a01b037f0000000000000000000000000000000000000000000000000000000000000000811660048301819052928116602483015291949092602092849260449284929091165af1908115610d6f575f91610dc2575b50600180546001600160a01b0319166001600160a01b0392909216919091179055604051635c7f355f60e11b815290602082600481845afa918215610d6f575f92610d8e575b5060085461095361094a846007546113e0565b60035490611401565b906002548015610d7a576109689204906113e0565b5f546001600160a01b031690813b156104a5575f91602483926040519485938492630852cd8d60e31b845260048401525af18015610d6f57610d53575b509060206004926040519384809262f0fc3160e71b82525afa918215610c47576004926020918691610d36575b50604051630ec0f7cf60e41b815293849182906001600160a01b03165afa8015610c4757610a08928591610d07575b5083611486565b6040516370a0823160e01b81523060048201528290602081602481865afa908115610cfc578291610cc6575b5081546040516370a0823160e01b8152306004820152929390602090849060249082906001600160a01b03165afa928315610c47578493610c8c575b5060015460405163a9059cbb60e01b81526001600160a01b03909116600482015260248101839052906020908290604490829088905af18015610c4757610c6f575b50825460015460405163a9059cbb60e01b81526001600160a01b0391821660048201526024810185905291602091839160449183918991165af18015610c4757610c52575b508260075582600855602060018060a01b03600154166024604051809681936335313c2160e11b83523060048401525af1928315610c47578493610c13575b5083602060018060a01b036001541660446040518098819363a9059cbb60e01b83528160048401528960248401525af1948515610c0657602095610bdb575b5061010061ff0019600954161760095560018060a01b039054169060018060a01b03600154169384936040519283528683015260408201527f9399e68793b73147d1402480d7f9c8d8b40b581f9547192713495d3c2e38568160603092a4604051908152f35b610bfa90863d8811610bff575b610bf28183611246565b81019061146e565b610b75565b503d610be8565b50604051903d90823e3d90fd5b9092506020813d602011610c3f575b81610c2f60209383611246565b810103126104a55751915f610b36565b3d9150610c22565b6040513d86823e3d90fd5b610c6a9060203d602011610bff57610bf28183611246565b610af7565b610c879060203d602011610bff57610bf28183611246565b610ab2565b935091506020833d602011610cbe575b81610ca960209383611246565b810103126104a5579151839290916020610a70565b3d9150610c9c565b9150506020813d602011610cf4575b81610ce260209383611246565b810103126104a5575182906024610a34565b3d9150610cd5565b6040513d84823e3d90fd5b610d29915060203d602011610d2f575b610d218183611246565b81019061144f565b5f610a01565b503d610d17565b610d4d9150823d8411610d2f57610d218183611246565b5f6109d2565b6004929194505f610d6391611246565b60205f949192506109a5565b6040513d5f823e3d90fd5b634e487b7160e01b5f52601260045260245ffd5b9091506020813d602011610dba575b81610daa60209383611246565b810103126104a55751905f610937565b3d9150610d9d565b610ddb915060203d602011610d2f57610d218183611246565b5f6108f1565b610dfb91925060203d602011610d2f57610d218183611246565b905f610885565b346104a5575f3660031901126104a5576001546040516001600160a01b039091168152602090f35b346104a5575f3660031901126104a557604060025460035482519182526020820152f35b346104a5575f3660031901126104a557602060ff600954166040519015158152f35b346104a55760403660031901126104a557610e89611230565b60243590610e9f60ff60095416156101d361127c565b7f000000000000000000000000000000000000000000000000000000000000000090610ecc610206611314565b610ed761022261135a565b5f5460075460085492916024916020916001600160a01b031690610f0690610efd61135a565b908911156112ec565b6001600160a01b03938416957f000000000000000000000000000000000000000000000000000000000000000090941693610f5990889088871415806111ba575b610f53906101d36113a5565b86611486565b6040516370a0823160e01b815230600482015292839182905afa908115610d6f575f91611187575b50602492610f8e916113e0565b6020604092610fd38451610fa28682611246565b601781527f474e61643a20494e56414c49445f414d4f554e545f494e000000000000000000848201528415156112ec565b83516370a0823160e01b815230600482015294859182905afa801561114a575f90611154575b6007555f5482516370a0823160e01b81523060048201529350602090849060249082906001600160a01b03165afa801561114a575f906110f8575b7fa082022e93cfcd9f1da5f9236718053910f7e840da080c789c7845698dc032ff9350600855611066856002546113e0565b600255611075816003546115e6565b60035560018060a01b035f54167f27efe2fec96cb0ff68b9206e3dca402a919bb7172e2f2d12d49b633df3eabc4f60806007546008546002546003549188519384526020840152878301526060820152a26110d861042d60025460035490611401565b60018060a01b035f54169482519182526020820152a36110f66115f3565b005b506020833d602011611142575b8161111260209383611246565b810103126104a5577fa082022e93cfcd9f1da5f9236718053910f7e840da080c789c7845698dc032ff9251611034565b3d9150611105565b82513d5f823e3d90fd5b506020833d60201161117f575b8161116e60209383611246565b810103126104a55760249251610ff9565b3d9150611161565b90506020813d6020116111b2575b816111a260209383611246565b810103126104a557516024610f81565b3d9150611195565b5088841415610f47565b346104a5575f3660031901126104a557604060065461ffff82519160ff8116835260081c166020820152f35b346104a5575f3660031901126104a5576020600554604051908152f35b346104a5575f3660031901126104a5576040906007546008549082526020820152f35b600435906001600160a01b03821682036104a557565b90601f8019910116810190811067ffffffffffffffff82111761126857604052565b634e487b7160e01b5f52604160045260245ffd5b6040519061128b606083611246565b6022825261115160f21b6040837f426f6e64696e6743757276653a20494e56414c49445f49545f49535f4c4f434b60208201520152565b602060409281835280519182918282860152018484015e5f828201840152601f01601f1916010190565b156112f45750565b60405162461bcd60e51b815290819061131090600483016112c2565b0390fd5b60405190611323606083611246565b6022825261535360f01b6040837f426f6e64696e6743757276653a20494e56414c49445f474e41445f414444524560208201520152565b60405190611369606083611246565b602782526615539517d3d55560ca1b6040837f426f6e64696e6743757276654c6962726172793a20494e56414c49445f414d4f60208201520152565b604051906113b4604083611246565b601f82527f426f6e64696e6743757276653a20494e56414c49445f524543495049454e54006020830152565b919082039182116113ed57565b634e487b7160e01b5f52601160045260245ffd5b818102929181159184041417156113ed57565b60405190611423604083611246565b601782527f426f6e64696e6743757276653a20494e56414c49445f4b0000000000000000006020830152565b908160209103126104a557516001600160a01b03811681036104a55790565b908160209103126104a5575180151581036104a55790565b60405163a9059cbb60e01b602082019081526001600160a01b039390931660248201526044808201949094529283529091905f9081906114c7606485611246565b60018060a01b031693604051936114df604086611246565b602085527f5361666545524332303a206c6f772d6c6576656c2063616c6c206661696c65646020860152519082865af13d156115d9573d9067ffffffffffffffff821161126857604051611551949092611543601f8201601f191660200185611246565b83523d5f602085013e611640565b80519081159182156115bf575b50501561156757565b60405162461bcd60e51b815260206004820152602a60248201527f5361666545524332303a204552433230206f7065726174696f6e20646964206e6044820152691bdd081cdd58d8d9595960b21b6064820152608490fd5b6115d2925060208091830101910161146e565b5f8061155e565b9161155192606091611640565b919082018092116113ed57565b6008546005541461160057565b6009805460ff191660011790555f80546001600160a01b0316907fc1b5f12cea7c200ad495a43bf2d4c7ba1a753343c06c339093937849de84d9139080a2565b919290156116a25750815115611654575090565b3b1561165d5790565b60405162461bcd60e51b815260206004820152601d60248201527f416464726573733a2063616c6c20746f206e6f6e2d636f6e74726163740000006044820152606490fd5b8251909150156112f45750805190602001fdfea2646970667358221220fbcde5b9a5cb921fa9d4feb871cc85ecbc37397f23c3ddc2d6a6891bb2473a4864736f6c63430008220033","linkReferences":{}},"methodIdentifiers":{"WMON()":"f1435d29","buy(address,uint256)":"cce7ec13","getFeeConfig()":"5fbbc0d2","getIsListing()":"c0171682","getK()":"ee39e7a0","getLock()":"7e5852d9","getLockedToken()":"3366eeb2","getReserves()":"0902f1ac","getVirtualReserves()":"7f8f6184","initialize(address,uint256,uint256,uint256,uint256,uint8,uint16)":"c228dae9","isListing()":"e06ec0bb","listing()":"bc7c55ed","lock()":"f83d08ba","pair()":"a8aa1b31","sell(address,uint256)":"6c197ff5","token()":"fc0c546a"},"id":40}