{"abi":[{"type":"constructor","inputs":[{"name":"name","type":"string","internalType":"string"},{"name":"symbol","type":"string","internalType":"string"},{"name":"_tokenURI","type":"string","internalType":"string"},{"name":"_gNad","type":"address","internalType":"address"}],"stateMutability":"nonpayable"},{"type":"function","name":"DOMAIN_SEPARATOR","inputs":[],"outputs":[{"name":"","type":"bytes32","internalType":"bytes32"}],"stateMutability":"view"},{"type":"function","name":"allowance","inputs":[{"name":"owner","type":"address","internalType":"address"},{"name":"spender","type":"address","internalType":"address"}],"outputs":[{"name":"","type":"uint256","internalType":"uint256"}],"stateMutability":"view"},{"type":"function","name":"approve","inputs":[{"name":"spender","type":"address","internalType":"address"},{"name":"amount","type":"uint256","internalType":"uint256"}],"outputs":[{"name":"","type":"bool","internalType":"bool"}],"stateMutability":"nonpayable"},{"type":"function","name":"balanceOf","inputs":[{"name":"account","type":"address","internalType":"address"}],"outputs":[{"name":"","type":"uint256","internalType":"uint256"}],"stateMutability":"view"},{"type":"function","name":"burn","inputs":[{"name":"amount","type":"uint256","internalType":"uint256"}],"outputs":[],"stateMutability":"nonpayable"},{"type":"function","name":"decimals","inputs":[],"outputs":[{"name":"","type":"uint8","internalType":"uint8"}],"stateMutability":"view"},{"type":"function","name":"decreaseAllowance","inputs":[{"name":"spender","type":"address","internalType":"address"},{"name":"subtractedValue","type":"uint256","internalType":"uint256"}],"outputs":[{"name":"","type":"bool","internalType":"bool"}],"stateMutability":"nonpayable"},{"type":"function","name":"eip712Domain","inputs":[],"outputs":[{"name":"fields","type":"bytes1","internalType":"bytes1"},{"name":"name","type":"string","internalType":"string"},{"name":"version","type":"string","internalType":"string"},{"name":"chainId","type":"uint256","internalType":"uint256"},{"name":"verifyingContract","type":"address","internalType":"address"},{"name":"salt","type":"bytes32","internalType":"bytes32"},{"name":"extensions","type":"uint256[]","internalType":"uint256[]"}],"stateMutability":"view"},{"type":"function","name":"increaseAllowance","inputs":[{"name":"spender","type":"address","internalType":"address"},{"name":"addedValue","type":"uint256","internalType":"uint256"}],"outputs":[{"name":"","type":"bool","internalType":"bool"}],"stateMutability":"nonpayable"},{"type":"function","name":"mint","inputs":[{"name":"_curve","type":"address","internalType":"address"}],"outputs":[],"stateMutability":"nonpayable"},{"type":"function","name":"name","inputs":[],"outputs":[{"name":"","type":"string","internalType":"string"}],"stateMutability":"view"},{"type":"function","name":"nonces","inputs":[{"name":"owner","type":"address","internalType":"address"}],"outputs":[{"name":"","type":"uint256","internalType":"uint256"}],"stateMutability":"view"},{"type":"function","name":"permit","inputs":[{"name":"owner","type":"address","internalType":"address"},{"name":"spender","type":"address","internalType":"address"},{"name":"value","type":"uint256","internalType":"uint256"},{"name":"deadline","type":"uint256","internalType":"uint256"},{"name":"v","type":"uint8","internalType":"uint8"},{"name":"r","type":"bytes32","internalType":"bytes32"},{"name":"s","type":"bytes32","internalType":"bytes32"}],"outputs":[],"stateMutability":"nonpayable"},{"type":"function","name":"permitTypeHash","inputs":[],"outputs":[{"name":"x","type":"bytes32","internalType":"bytes32"}],"stateMutability":"pure"},{"type":"function","name":"symbol","inputs":[],"outputs":[{"name":"","type":"string","internalType":"string"}],"stateMutability":"view"},{"type":"function","name":"tokenURI","inputs":[],"outputs":[{"name":"","type":"string","internalType":"string"}],"stateMutability":"view"},{"type":"function","name":"totalSupply","inputs":[],"outputs":[{"name":"","type":"uint256","internalType":"uint256"}],"stateMutability":"view"},{"type":"function","name":"transfer","inputs":[{"name":"to","type":"address","internalType":"address"},{"name":"value","type":"uint256","internalType":"uint256"}],"outputs":[{"name":"","type":"bool","internalType":"bool"}],"stateMutability":"nonpayable"},{"type":"function","name":"transferFrom","inputs":[{"name":"from","type":"address","internalType":"address"},{"name":"to","type":"address","internalType":"address"},{"name":"amount","type":"uint256","internalType":"uint256"}],"outputs":[{"name":"","type":"bool","internalType":"bool"}],"stateMutability":"nonpayable"},{"type":"event","name":"Approval","inputs":[{"name":"owner","type":"address","indexed":true,"internalType":"address"},{"name":"spender","type":"address","indexed":true,"internalType":"address"},{"name":"value","type":"uint256","indexed":false,"internalType":"uint256"}],"anonymous":false},{"type":"event","name":"EIP712DomainChanged","inputs":[],"anonymous":false},{"type":"event","name":"Transfer","inputs":[{"name":"from","type":"address","indexed":true,"internalType":"address"},{"name":"to","type":"address","indexed":true,"internalType":"address"},{"name":"value","type":"uint256","indexed":false,"internalType":"uint256"}],"anonymous":false},{"type":"error","name":"InvalidShortString","inputs":[]},{"type":"error","name":"StringTooLong","inputs":[{"name":"str","type":"string","internalType":"string"}]}],"bytecode":{"object":"0x61016080604052346105c957611f17803803809161001d82856105cd565b833981016080828203126105c95781516001600160401b0381116105c957816100479184016105f0565b60208301516001600160401b0381116105c957826100669185016105f0565b60408401519092906001600160401b0381116105c95760609161008a9186016105f0565b9301516001600160a01b03811691908290036105c9576040928351916100b085846105cd565b60018352603160f81b6020840190815281519092906001600160401b0381116103dd57600354600181811c911680156105bf575b60208210146103bf57601f8111610551575b50806020601f82116001146104ed575f916104e2575b508160011b915f199060031b1c1916176003555b8051906001600160401b0382116103dd5760045490600182811c921680156104d8575b60208310146103bf5781601f849311610462575b50602090601f83116001146103fc575f926103f1575b50508160011b915f199060031b1c1916176004555b61018b81610645565b61012052610198836107d8565b6101405260208151910120918260e05251902080610100524660a05283519060208201927f8b73c3c69bb8fe3d512ecc4cf759cc79239f7b179b0ffacaa9a75d522b39400f84528583015260608201524660808201523060a082015260a0815261020360c0826105cd565b5190206080523060c05282516001600160401b0381116103dd57600a54600181811c911680156103d3575b60208210146103bf57601f8111610351575b506020601f82116001146102ee57819293945f926102e3575b50508160011b915f199060031b1c191617600a555b600980546001600160a81b03191633179055600b80546001600160a01b031916919091179055516115fa908161091d823960805181610ff9015260a051816110b6015260c05181610fc3015260e051816110480152610100518161106e015261012051816107f40152610140518161081d0152f35b015190505f80610259565b601f19821690600a5f52805f20915f5b81811061033957509583600195969710610321575b505050811b01600a5561026e565b01515f1960f88460031b161c191690555f8080610313565b9192602060018192868b0151815501940192016102fe565b8181111561024057600a5f52601f820160051c7fc65a7bb8d6351c1cf70c95a316cc6a92839c986682d98bc35f958f4883f9d2a8602084106103b7575b81601f9101920160051c03905f5b8281106103aa575050610240565b5f8282015560010161039c565b5f915061038e565b634e487b7160e01b5f52602260045260245ffd5b90607f169061022e565b634e487b7160e01b5f52604160045260245ffd5b015190505f8061016d565b60045f9081528281209350601f198516905b81811061044a5750908460019594939210610432575b505050811b01600455610182565b01515f1960f88460031b161c191690555f8080610424565b9293602060018192878601518155019501930161040e565b828111156101575760045f52909150601f830160051c7f8a35acfbc15ff81a39ae7d344fd709f28e8600b4aa8c65c6b64bfe7fe36bd19b602085106104d0575b849392601f0160051c82900391015f5b8281106104c0575050610157565b5f818301558594506001016104b2565b5f91506104a2565b91607f1691610143565b90508301515f61010c565b60035f9081528181209250601f198416905b81811061053957509083600194939210610521575b5050811b01600355610120565b8501515f1960f88460031b161c191690555f80610514565b9192602060018192868a0151815501940192016104ff565b818111156100f65760035f52601f820160051c7fc2575a0e9e593c00f959f8c92f12db2869c3395a3b0502d05e2516446f71f85b602084106105b7575b81601f9101920160051c03905f5b8281106105aa5750506100f6565b5f8282015560010161059c565b5f915061058e565b90607f16906100e4565b5f80fd5b601f909101601f19168101906001600160401b038211908210176103dd57604052565b81601f820112156105c9578051906001600160401b0382116103dd5760405192610624601f8401601f1916602001856105cd565b828452602083830101116105c957815f9260208093018386015e8301015290565b908151602081105f146106bf575090601f81511161067f576020815191015160208210610670571790565b5f198260200360031b1b161790565b604460209160405192839163305a27a960e01b83528160048401528051918291826024860152018484015e5f828201840152601f01601f19168101030190fd5b6001600160401b0381116103dd57600554600181811c911680156107ce575b60208210146103bf57601f811161078f575b50602092601f821160011461072e57928192935f92610723575b50508160011b915f199060031b1c19161760055560ff90565b015190505f8061070a565b601f1982169360055f52805f20915f5b868110610777575083600195961061075f575b505050811b0160055560ff90565b01515f1960f88460031b161c191690555f8080610751565b9192602060018192868501518155019401920161073e565b818111156106f05760055f5260205f20601f80840160051c809201920160051c03905f5b8281106107c15750506106f0565b5f828201556001016107b3565b90607f16906106de565b908151602081105f14610803575090601f81511161067f576020815191015160208210610670571790565b6001600160401b0381116103dd57600654600181811c91168015610912575b60208210146103bf57601f81116108d3575b50602092601f821160011461087257928192935f92610867575b50508160011b915f199060031b1c19161760065560ff90565b015190505f8061084e565b601f1982169360065f52805f20915f5b8681106108bb57508360019596106108a3575b505050811b0160065560ff90565b01515f1960f88460031b161c191690555f8080610895565b91926020600181928685015181550194019201610882565b818111156108345760065f5260205f20601f80840160051c809201920160051c03905f5b828110610905575050610834565b5f828201556001016108f7565b90607f169061082256fe60806040526004361015610011575f80fd5b5f3560e01c806306fdde0314610144578063095ea7b31461013f57806310ce43bd1461013a57806318160ddd1461013557806323b872dd14610130578063313ce5671461012b5780633644e5151461012657806339509351146101215780633c130d901461011c57806342966c68146101175780636a6278421461011257806370a082311461010d5780637ecebe001461010857806384b0196e1461010357806395d89b41146100fe578063a457c2d7146100f9578063a9059cbb146100f4578063d505accf146100ef5763dd62ed3e146100ea575f80fd5b610ba9565b610a4e565b610a28565b61097e565b6108d9565b6107dc565b6107a4565b61076d565b6106b4565b6105db565b610536565b610474565b610452565b610437565b61036e565b610351565b6102bc565b61028b565b610181565b805180835260209291819084018484015e5f828201840152601f01601f1916010190565b90602061017e928181520190610149565b90565b3461025b575f36600319011261025b576040515f6003546101a1816104c8565b808452906001811690811561023757506001146101d9575b6101d5836101c981850382610500565b6040519182918261016d565b0390f35b60035f9081527fc2575a0e9e593c00f959f8c92f12db2869c3395a3b0502d05e2516446f71f85b939250905b80821061021d575090915081016020016101c96101b9565b919260018160209254838588010152019101909291610205565b60ff191660208086019190915291151560051b840190910191506101c990506101b9565b5f80fd5b600435906001600160a01b038216820361025b57565b602435906001600160a01b038216820361025b57565b3461025b57604036600319011261025b576102b16102a761025f565b6024359033610cc7565b602060405160018152f35b3461025b575f36600319011261025b57602060526040516102de608082610500565b818152712c75696e7432353620646561646c696e652960701b6060848301927f5065726d69742861646472657373206f776e65722c616464726573732073706584527f6e6465722c75696e743235362076616c75652c75696e74323536206e6f6e63656040820152015220604051908152f35b3461025b575f36600319011261025b576020600254604051908152f35b3461025b57606036600319011261025b5761038761025f565b61038f610275565b6001600160a01b0382165f9081526001602081815260408084203385529091529091205492604435929184016103d6575b6103ca9350610eac565b60405160018152602090f35b8284106103f2576103ed836103ca95033383610cc7565b6103c0565b60405162461bcd60e51b815260206004820152601d60248201527f45524332303a20696e73756666696369656e7420616c6c6f77616e63650000006044820152606490fd5b3461025b575f36600319011261025b57602060405160128152f35b3461025b575f36600319011261025b57602061046c610fc0565b604051908152f35b3461025b57604036600319011261025b576102b161049061025f565b6104c1602435335f5260016020526104bb8360405f209060018060a01b03165f5260205260405f2090565b54610c00565b9033610cc7565b90600182811c921680156104f6575b60208310146104e257565b634e487b7160e01b5f52602260045260245ffd5b91607f16916104d7565b90601f8019910116810190811067ffffffffffffffff82111761052257604052565b634e487b7160e01b5f52604160045260245ffd5b3461025b575f36600319011261025b576040515f600a54610556816104c8565b8084529060018116908115610237575060011461057d576101d5836101c981850382610500565b600a5f9081527fc65a7bb8d6351c1cf70c95a316cc6a92839c986682d98bc35f958f4883f9d2a8939250905b8082106105c1575090915081016020016101c96101b9565b9192600181602092548385880101520191019092916105a9565b3461025b57602036600319011261025b57600435331561066557335f908152602081905260408120909190819054610615828210156110dc565b335f90815260208190526040902091900390556106358160025403600255565b60405190815233907fddf252ad1be2c89b69c2b068fc378daa952ba7f163c4a11628f55a4df523b3ef90602090a3005b60405162461bcd60e51b815260206004820152602160248201527f45524332303a206275726e2066726f6d20746865207a65726f206164647265736044820152607360f81b6064820152608490fd5b3461025b57602036600319011261025b576106cd61025f565b600954906001600160a01b0382163303610728576107016106fc6106f86107129460ff9060a01c1690565b1590565b610c21565b61070d60025415610c21565b611133565b6009805460ff60a01b1916600160a01b1790555b005b60405162461bcd60e51b815260206004820152601d60248201527f496e76616c696420746f6b656e20666163746f727920616464726573730000006044820152606490fd5b3461025b57602036600319011261025b576001600160a01b0361078e61025f565b165f525f602052602060405f2054604051908152f35b3461025b57602036600319011261025b576001600160a01b036107c561025f565b165f526007602052602060405f2054604051908152f35b3461025b575f36600319011261025b576108806108187f000000000000000000000000000000000000000000000000000000000000000061121b565b6108417f00000000000000000000000000000000000000000000000000000000000000006112e0565b60206040516108508282610500565b5f81528161088e81830194601f198301368737604051978897600f60f81b895260e0858a015260e0890190610149565b908782036040890152610149565b914660608701523060808701525f60a087015285830360c087015251918281520192915f5b8281106108c257505050500390f35b8351855286955093810193928101926001016108b3565b3461025b575f36600319011261025b576040515f6004546108f9816104c8565b80845290600181169081156102375750600114610920576101d5836101c981850382610500565b60045f9081527f8a35acfbc15ff81a39ae7d344fd709f28e8600b4aa8c65c6b64bfe7fe36bd19b939250905b808210610964575090915081016020016101c96101b9565b91926001816020925483858801015201910190929161094c565b3461025b57604036600319011261025b5761099761025f565b60243590335f5260016020526109c08160405f209060018060a01b03165f5260205260405f2090565b54918083106109d5576103ca92039033610cc7565b60405162461bcd60e51b815260206004820152602560248201527f45524332303a2064656372656173656420616c6c6f77616e63652062656c6f77604482015264207a65726f60d81b6064820152608490fd5b3461025b57604036600319011261025b576102b1610a4461025f565b6024359033610eac565b3461025b5760e036600319011261025b57610a6761025f565b610a6f610275565b604435906064359260843560ff8116810361025b5760a4359460c435814211610b645761072696610b5f93610b478689610b3f8a610b31610b4c99610acd8660018060a01b03165f52600760205260405f2090815491600183019055565b604051958694602086019889919260a093969594919660c08401977f6e71edae12b1b97f4d1f60370fef10105fa2faae0126114a169c64845d6126c98552600180871b03166020850152600180861b03166040840152606083015260808201520152565b03601f198101835282610500565b519020611385565b6113ab565b6001600160a01b03838116911614610c7b565b610cc7565b60405162461bcd60e51b815260206004820152601d60248201527f45524332305065726d69743a206578706972656420646561646c696e650000006044820152606490fd5b3461025b57604036600319011261025b576020610bf7610bc761025f565b610bcf610275565b6001600160a01b039182165f9081526001855260408082209290931681526020919091522090565b54604051908152f35b91908201809211610c0d57565b634e487b7160e01b5f52601160045260245ffd5b15610c2857565b60405162461bcd60e51b815260206004820152602560248201527f496e76616c69643a20546f6b656e2063616e206d696e74206f6e6c79206f6e656044820152642074696d6560d81b6064820152608490fd5b15610c8257565b60405162461bcd60e51b815260206004820152601e60248201527f45524332305065726d69743a20696e76616c6964207369676e617475726500006044820152606490fd5b6001600160a01b03811691908215610da8576001600160a01b038216938415610d585780610d427f8c5be1e5ebec7d5bd14f71427d1e84f3dd0314c0f7b2291e5b200ac8c7c3b92594610d2d610d539560018060a01b03165f52600160205260405f2090565b9060018060a01b03165f5260205260405f2090565b556040519081529081906020820190565b0390a3565b60405162461bcd60e51b815260206004820152602260248201527f45524332303a20617070726f766520746f20746865207a65726f206164647265604482015261737360f01b6064820152608490fd5b60405162461bcd60e51b8152602060048201526024808201527f45524332303a20617070726f76652066726f6d20746865207a65726f206164646044820152637265737360e01b6064820152608490fd5b15610e0057565b60405162461bcd60e51b815260206004820152602360248201527f45524332303a207472616e7366657220746f20746865207a65726f206164647260448201526265737360e81b6064820152608490fd5b15610e5857565b60405162461bcd60e51b815260206004820152602660248201527f45524332303a207472616e7366657220616d6f756e7420657863656564732062604482015265616c616e636560d01b6064820152608490fd5b916001600160a01b038316918215610f6d577fddf252ad1be2c89b69c2b068fc378daa952ba7f163c4a11628f55a4df523b3ef91610f57610d539260018060a01b03811696610efc881515610df9565b610f3d84610f198360018060a01b03165f525f60205260405f2090565b54610f2682821015610e51565b039160018060a01b03165f525f60205260405f2090565b556001600160a01b03165f90815260208190526040902090565b8054820190556040519081529081906020820190565b60405162461bcd60e51b815260206004820152602560248201527f45524332303a207472616e736665722066726f6d20746865207a65726f206164604482015264647265737360d81b6064820152608490fd5b307f00000000000000000000000000000000000000000000000000000000000000006001600160a01b031614806110b3575b1561101b577f000000000000000000000000000000000000000000000000000000000000000090565b60405160208101907f8b73c3c69bb8fe3d512ecc4cf759cc79239f7b179b0ffacaa9a75d522b39400f82527f000000000000000000000000000000000000000000000000000000000000000060408201527f000000000000000000000000000000000000000000000000000000000000000060608201524660808201523060a082015260a081526110ad60c082610500565b51902090565b507f00000000000000000000000000000000000000000000000000000000000000004614610ff2565b156110e357565b60405162461bcd60e51b815260206004820152602260248201527f45524332303a206275726e20616d6f756e7420657863656564732062616c616e604482015261636560f01b6064820152608490fd5b6001600160a01b0381169081156111d657600254906b033b2e3c9fd0803ce80000008201809211610c0d5761116a61118392600255565b6001600160a01b03165f90815260208190526040902090565b6b033b2e3c9fd0803ce800000081540190555f7fddf252ad1be2c89b69c2b068fc378daa952ba7f163c4a11628f55a4df523b3ef60405180610d536b033b2e3c9fd0803ce8000000829190602083019252565b60405162461bcd60e51b815260206004820152601f60248201527f45524332303a206d696e7420746f20746865207a65726f2061646472657373006044820152606490fd5b60ff811461122c5761017e906113c2565b50604051600554815f61123e836104c8565b80835292600181169081156112c15750600114611262575b61017e92500382610500565b5060055f90815290917f036b6384b5eca791c62761152d0c79bb0604c104a5fb6f4eb0703f3154bb3db05b8183106112a557505090602061017e92820101611256565b602091935080600191548385880101520191019091839261128d565b6020925061017e94915060ff191682840152151560051b820101611256565b60ff81146112f15761017e906113c2565b50604051600654815f611303836104c8565b80835292600181169081156112c157506001146113265761017e92500382610500565b5060065f90815290917ff652222313e28459528d920b65115c16c04f3efc82aaedc97be59f3f377c0d3f5b81831061136957505090602061017e92820101611256565b6020919350806001915483858801015201910190918392611351565b604290611390610fc0565b906040519161190160f01b8352600283015260228201522090565b9161017e93916113ba93611400565b9190916114a4565b60ff811690601f82116113f157604051916113de604084610500565b6020808452838101919036833783525290565b632cd44ac360e21b5f5260045ffd5b7f7fffffffffffffffffffffffffffffff5d576e7357a4501ddfe92f46681b20a0841161147b576020935f9360ff60809460405194855216868401526040830152606082015282805260015afa15611470575f516001600160a01b0381161561146857905f90565b505f90600190565b6040513d5f823e3d90fd5b505050505f90600390565b6005111561149057565b634e487b7160e01b5f52602160045260245ffd5b6114ad81611486565b806114b55750565b6114be81611486565b6001810361150b5760405162461bcd60e51b815260206004820152601860248201527f45434453413a20696e76616c6964207369676e617475726500000000000000006044820152606490fd5b61151481611486565b600281036115615760405162461bcd60e51b815260206004820152601f60248201527f45434453413a20696e76616c6964207369676e6174757265206c656e677468006044820152606490fd5b8061156d600392611486565b1461157457565b60405162461bcd60e51b815260206004820152602260248201527f45434453413a20696e76616c6964207369676e6174757265202773272076616c604482015261756560f01b6064820152608490fdfea2646970667358221220fd98e075537e56a14c5f627b51d45f452a01b08e2f9ef1951b50cc107548436664736f6c63430008220033","linkReferences":{}},"methodIdentifiers":{"DOMAIN_SEPARATOR()":"3644e515","allowance(address,address)":"dd62ed3e","approve(address,uint256)":"095ea7b3","balanceOf(address)":"70a08231","burn(uint256)":"42966c68","decimals()":"313ce567","decreaseAllowance(address,uint256)":"a457c2d7","eip712Domain()":"84b0196e","increaseAllowance(address,uint256)":"39509351","mint(address)":"6a627842","name()":"06fdde03","nonces(address)":"7ecebe00","permit(address,address,uint256,uint256,uint8,bytes32,bytes32)":"d505accf","permitTypeHash()":"10ce43bd","symbol()":"95d89b41","tokenURI()":"3c130d90","totalSupply()":"18160ddd","transfer(address,uint256)":"a9059cbb","transferFrom(address,address,uint256)":"23b872dd"},"id":44}