{"abi":[{"type":"constructor","inputs":[{"name":"_wMon","type":"address","internalType":"address"},{"name":"_owners","type":"address[]","internalType":"address[]"},{"name":"_requiredSignatures","type":"uint256","internalType":"uint256"}],"stateMutability":"nonpayable"},{"type":"receive","stateMutability":"payable"},{"type":"function","name":"WMON","inputs":[],"outputs":[{"name":"","type":"address","internalType":"contract IWMon"}],"stateMutability":"view"},{"type":"function","name":"isOwner","inputs":[{"name":"","type":"address","internalType":"address"}],"outputs":[{"name":"","type":"bool","internalType":"bool"}],"stateMutability":"view"},{"type":"function","name":"ownerCount","inputs":[],"outputs":[{"name":"","type":"uint256","internalType":"uint256"}],"stateMutability":"view"},{"type":"function","name":"proposalCount","inputs":[],"outputs":[{"name":"","type":"uint256","internalType":"uint256"}],"stateMutability":"view"},{"type":"function","name":"proposeWithdrawal","inputs":[{"name":"receiver","type":"address","internalType":"address"},{"name":"amount","type":"uint256","internalType":"uint256"}],"outputs":[],"stateMutability":"nonpayable"},{"type":"function","name":"requiredSignatures","inputs":[],"outputs":[{"name":"","type":"uint256","internalType":"uint256"}],"stateMutability":"view"},{"type":"function","name":"signWithdrawal","inputs":[{"name":"proposalId","type":"uint256","internalType":"uint256"}],"outputs":[],"stateMutability":"nonpayable"},{"type":"function","name":"totalAssets","inputs":[],"outputs":[{"name":"","type":"uint256","internalType":"uint256"}],"stateMutability":"view"},{"type":"function","name":"withdrawalProposals","inputs":[{"name":"","type":"uint256","internalType":"uint256"}],"outputs":[{"name":"receiver","type":"address","internalType":"address"},{"name":"amount","type":"uint256","internalType":"uint256"},{"name":"signatureCount","type":"uint256","internalType":"uint256"},{"name":"executed","type":"bool","internalType":"bool"}],"stateMutability":"view"},{"type":"event","name":"OwnerAdded","inputs":[{"name":"owner","type":"address","indexed":true,"internalType":"address"}],"anonymous":false},{"type":"event","name":"OwnerRemoved","inputs":[{"name":"owner","type":"address","indexed":true,"internalType":"address"}],"anonymous":false},{"type":"event","name":"WithdrawalExecuted","inputs":[{"name":"proposalId","type":"uint256","indexed":true,"internalType":"uint256"},{"name":"receiver","type":"address","indexed":false,"internalType":"address"},{"name":"amount","type":"uint256","indexed":false,"internalType":"uint256"}],"anonymous":false},{"type":"event","name":"WithdrawalProposed","inputs":[{"name":"proposalId","type":"uint256","indexed":true,"internalType":"uint256"},{"name":"receiver","type":"address","indexed":false,"internalType":"address"},{"name":"amount","type":"uint256","indexed":false,"internalType":"uint256"}],"anonymous":false},{"type":"event","name":"WithdrawalSigned","inputs":[{"name":"proposalId","type":"uint256","indexed":true,"internalType":"uint256"},{"name":"signer","type":"address","indexed":false,"internalType":"address"}],"anonymous":false}],"bytecode":{"object":"0x60a06040523461032d57610c588038038061001981610345565b928339810160608282031261032d576100318261036a565b60208301519092906001600160401b03811161032d5781019180601f8401121561032d578251926001600160401b038411610331578360051b90602080610079818501610345565b80978152019282010192831161032d57602001905b8282106103155750505060400151916001600160a01b031680156102c5578151156102805782151580610275575b1561021e576080525f5b81518110156101ef576001600160a01b036100e1828461037e565b5116156101aa576001600160a01b036100fa828461037e565b51165f525f60205260ff60405f205416610165576001600160a01b03610120828461037e565b51165f525f60205260405f20600160ff19825416179055600354905f198214610151576001809201600355016100c6565b634e487b7160e01b5f52601160045260245ffd5b60405162461bcd60e51b815260206004820152601d60248201527f4552525f4645455f5641554c545f4455504c49434154455f4f574e45520000006044820152606490fd5b60405162461bcd60e51b815260206004820152601b60248201527f4552525f4645455f5641554c545f494e56414c49445f4f574e455200000000006044820152606490fd5b826002556040516108b190816103a78239608051818181601a0152818160e10152818161043d01526107a30152f35b60405162461bcd60e51b815260206004820152602960248201527f4552525f4645455f5641554c545f494e56414c49445f5349474e41545552455360448201526817d49154555254915160ba1b6064820152608490fd5b5081518311156100bc565b60405162461bcd60e51b815260206004820152601760248201527f4552525f4645455f5641554c545f4e4f5f4f574e4552530000000000000000006044820152606490fd5b60405162461bcd60e51b815260206004820152602260248201527f4552525f4645455f5641554c545f494e56414c49445f574d4f4e5f4144445245604482015261535360f01b6064820152608490fd5b602080916103228461036a565b81520191019061008e565b5f80fd5b634e487b7160e01b5f52604160045260245ffd5b6040519190601f01601f191682016001600160401b0381118382101761033157604052565b51906001600160a01b038216820361032d57565b80518210156103925760209160051b010190565b634e487b7160e01b5f52603260045260245ffdfe6080604052600436101561005e575b3615610018575f80fd5b7f00000000000000000000000000000000000000000000000000000000000000006001600160a01b0316330361004a57005b634e487b7160e01b5f52600160045260245ffd5b5f5f3560e01c806301e1d1141461071a5780630db02622146106fd5780632f54bf6e146106c1578063513269f6146106685780637dcf975a146103475780638d06804314610329578063da35c6641461030b578063ecc49b11146101135763f1435d29146100cc575061000e565b346101105780600319360112610110576040517f00000000000000000000000000000000000000000000000000000000000000006001600160a01b03168152602090f35b80fd5b50346101105760403660031901126101105761012d61073c565b602435903383528260205261014860ff60408520541661080d565b6001600160a01b0381169081156102c657821561028157610167610788565b8311610231576003927f0e22ebcc2aacdbbd12e9066e45d0f96554d759483c29ff66d6f79e0c5d616647916004549485946101a186610859565b600455858852600160208181526040808b2080546001600160a01b03191694909417845583830187905560028401839055335f90815294909301815292829020805460ff1916909117905580516001600160a01b0393909316835290820192909252a27f01abd961ac45cbdbe6ab54236ff6ada5209c871bc7a0d7428c7c85ea4f0aef826020604051338152a280f35b60405162461bcd60e51b815260206004820152602260248201527f4552525f4645455f5641554c545f494e53554646494349454e545f42414c414e604482015261434560f01b6064820152608490fd5b60405162461bcd60e51b815260206004820152601c60248201527f4552525f4645455f5641554c545f494e56414c49445f414d4f554e54000000006044820152606490fd5b60405162461bcd60e51b815260206004820152601e60248201527f4552525f4645455f5641554c545f494e56414c49445f524543454956455200006044820152606490fd5b50346101105780600319360112610110576020600454604051908152f35b50346101105780600319360112610110576020600254604051908152f35b503461059557602036600319011261059557600435335f525f60205261037360ff60405f20541661080d565b5f81815260016020526040902080546001600160a01b031615610623576004810160ff8154166105de57335f90815260038301602081905260409091205460ff1661059957335f90815260209190915260409020805460ff191660011790556002820180546103e190610859565b809155837f01abd961ac45cbdbe6ab54236ff6ada5209c871bc7a0d7428c7c85ea4f0aef826020604051338152a2600254111561041c578380f35b805460ff1916600190811790915581549101546001600160a01b03918216917f000000000000000000000000000000000000000000000000000000000000000016803b15610595575f8091602460405180948193632e1a7d4d60e01b83528760048401525af1801561058a57610575575b508380808084865af13d15610570573d67ffffffffffffffff811161055c57604051906104c4601f8201601f191660200183610752565b81528560203d92013e5b1561051757604080516001600160a01b0393909316835260208301919091527fd6cddb3d69146e96ebc2c87b1b3dd0b20ee2d3b0eadf134e011afb434a3e56e691a25f80808380f35b60405162461bcd60e51b815260206004820152601d60248201527f4552525f4645455f5641554c545f5452414e534645525f4641494c45440000006044820152606490fd5b634e487b7160e01b86526041600452602486fd5b6104ce565b6105829194505f90610752565b5f925f61048d565b6040513d5f823e3d90fd5b5f80fd5b60405162461bcd60e51b815260206004820152601c60248201527f4552525f4645455f5641554c545f414c52454144595f5349474e4544000000006044820152606490fd5b60405162461bcd60e51b815260206004820152601e60248201527f4552525f4645455f5641554c545f414c52454144595f455845435554454400006044820152606490fd5b60405162461bcd60e51b815260206004820152601e60248201527f4552525f4645455f5641554c545f494e56414c49445f50524f504f53414c00006044820152606490fd5b34610595576020366003190112610595576004355f526001602052608060405f2060018060a01b038154169060018101549060ff6004600283015492015416916040519384526020840152604083015215156060820152f35b34610595576020366003190112610595576001600160a01b036106e261073c565b165f525f602052602060ff60405f2054166040519015158152f35b34610595575f366003190112610595576020600354604051908152f35b34610595575f366003190112610595576020610734610788565b604051908152f35b600435906001600160a01b038216820361059557565b90601f8019910116810190811067ffffffffffffffff82111761077457604052565b634e487b7160e01b5f52604160045260245ffd5b6040516370a0823160e01b81523060048201526020816024817f00000000000000000000000000000000000000000000000000000000000000006001600160a01b03165afa90811561058a575f916107de575090565b90506020813d602011610805575b816107f960209383610752565b81010312610595575190565b3d91506107ec565b1561081457565b60405162461bcd60e51b815260206004820152601760248201527f4552525f4645455f5641554c545f4e4f545f4f574e45520000000000000000006044820152606490fd5b5f1981146108675760010190565b634e487b7160e01b5f52601160045260245ffdfea264697066735822122032bd78d7f10e5c6503f5a492bdbdf9e632c5a073d450473c82346dad78f2ac1c64736f6c63430008220033","linkReferences":{}},"methodIdentifiers":{"WMON()":"f1435d29","isOwner(address)":"2f54bf6e","ownerCount()":"0db02622","proposalCount()":"da35c664","proposeWithdrawal(address,uint256)":"ecc49b11","requiredSignatures()":"8d068043","signWithdrawal(uint256)":"7dcf975a","totalAssets()":"01e1d114","withdrawalProposals(uint256)":"513269f6"},"id":42}